{
	"contracts/demo.sol": {
		"demo": {
			"abi": [
				{
					"inputs": [],
					"name": "Display",
					"outputs": [
						{
							"internalType": "uint256[]",
							"name": "",
							"type": "uint256[]"
						}
					],
					"stateMutability": "view",
					"type": "function"
				},
				{
					"inputs": [
						{
							"internalType": "uint256",
							"name": "a",
							"type": "uint256"
						}
					],
					"name": "Even",
					"outputs": [
						{
							"internalType": "bool",
							"name": "",
							"type": "bool"
						}
					],
					"stateMutability": "pure",
					"type": "function"
				},
				{
					"inputs": [],
					"name": "addr",
					"outputs": [
						{
							"internalType": "address",
							"name": "",
							"type": "address"
						}
					],
					"stateMutability": "view",
					"type": "function"
				},
				{
					"inputs": [
						{
							"internalType": "uint256",
							"name": "",
							"type": "uint256"
						}
					],
					"name": "arr",
					"outputs": [
						{
							"internalType": "uint256",
							"name": "",
							"type": "uint256"
						}
					],
					"stateMutability": "view",
					"type": "function"
				},
				{
					"inputs": [
						{
							"internalType": "uint256",
							"name": "",
							"type": "uint256"
						}
					],
					"name": "array",
					"outputs": [
						{
							"internalType": "uint256",
							"name": "",
							"type": "uint256"
						}
					],
					"stateMutability": "view",
					"type": "function"
				},
				{
					"inputs": [
						{
							"internalType": "uint256",
							"name": "",
							"type": "uint256"
						}
					],
					"name": "brr",
					"outputs": [
						{
							"internalType": "uint256",
							"name": "",
							"type": "uint256"
						}
					],
					"stateMutability": "view",
					"type": "function"
				},
				{
					"inputs": [
						{
							"internalType": "uint256",
							"name": "num1",
							"type": "uint256"
						}
					],
					"name": "conditionals",
					"outputs": [
						{
							"internalType": "uint256",
							"name": "",
							"type": "uint256"
						}
					],
					"stateMutability": "pure",
					"type": "function"
				},
				{
					"inputs": [],
					"name": "display",
					"outputs": [
						{
							"internalType": "uint256[5]",
							"name": "",
							"type": "uint256[5]"
						}
					],
					"stateMutability": "view",
					"type": "function"
				},
				{
					"inputs": [],
					"name": "f1",
					"outputs": [
						{
							"internalType": "uint256",
							"name": "",
							"type": "uint256"
						}
					],
					"stateMutability": "pure",
					"type": "function"
				},
				{
					"inputs": [],
					"name": "flag",
					"outputs": [
						{
							"internalType": "bool",
							"name": "",
							"type": "bool"
						}
					],
					"stateMutability": "view",
					"type": "function"
				},
				{
					"inputs": [],
					"name": "fmemory",
					"outputs": [],
					"stateMutability": "view",
					"type": "function"
				},
				{
					"inputs": [],
					"name": "fstorage",
					"outputs": [],
					"stateMutability": "view",
					"type": "function"
				},
				{
					"inputs": [],
					"name": "getter",
					"outputs": [
						{
							"internalType": "uint256",
							"name": "",
							"type": "uint256"
						}
					],
					"stateMutability": "view",
					"type": "function"
				},
				{
					"inputs": [
						{
							"internalType": "uint256",
							"name": "val",
							"type": "uint256"
						}
					],
					"name": "insert",
					"outputs": [],
					"stateMutability": "nonpayable",
					"type": "function"
				},
				{
					"inputs": [
						{
							"internalType": "uint256",
							"name": "a",
							"type": "uint256"
						}
					],
					"name": "isZero",
					"outputs": [
						{
							"internalType": "bool",
							"name": "",
							"type": "bool"
						}
					],
					"stateMutability": "pure",
					"type": "function"
				},
				{
					"inputs": [
						{
							"internalType": "uint256",
							"name": "a",
							"type": "uint256"
						}
					],
					"name": "isZeroIF",
					"outputs": [
						{
							"internalType": "bool",
							"name": "",
							"type": "bool"
						}
					],
					"stateMutability": "pure",
					"type": "function"
				},
				{
					"inputs": [],
					"name": "len",
					"outputs": [
						{
							"internalType": "uint256",
							"name": "",
							"type": "uint256"
						}
					],
					"stateMutability": "view",
					"type": "function"
				},
				{
					"inputs": [],
					"name": "loop",
					"outputs": [
						{
							"internalType": "uint256",
							"name": "",
							"type": "uint256"
						}
					],
					"stateMutability": "pure",
					"type": "function"
				},
				{
					"inputs": [],
					"name": "num",
					"outputs": [
						{
							"internalType": "uint256",
							"name": "",
							"type": "uint256"
						}
					],
					"stateMutability": "view",
					"type": "function"
				},
				{
					"inputs": [],
					"name": "removeLast",
					"outputs": [],
					"stateMutability": "nonpayable",
					"type": "function"
				},
				{
					"inputs": [],
					"name": "ret",
					"outputs": [
						{
							"internalType": "bool",
							"name": "",
							"type": "bool"
						}
					],
					"stateMutability": "view",
					"type": "function"
				},
				{
					"inputs": [
						{
							"internalType": "uint256",
							"name": "_num",
							"type": "uint256"
						}
					],
					"name": "setter",
					"outputs": [],
					"stateMutability": "nonpayable",
					"type": "function"
				},
				{
					"inputs": [
						{
							"internalType": "uint256",
							"name": "idx",
							"type": "uint256"
						}
					],
					"name": "singledisplay",
					"outputs": [
						{
							"internalType": "uint256",
							"name": "",
							"type": "uint256"
						}
					],
					"stateMutability": "view",
					"type": "function"
				},
				{
					"inputs": [],
					"name": "str",
					"outputs": [
						{
							"internalType": "string",
							"name": "",
							"type": "string"
						}
					],
					"stateMutability": "view",
					"type": "function"
				},
				{
					"inputs": [
						{
							"internalType": "uint256",
							"name": "idx",
							"type": "uint256"
						},
						{
							"internalType": "uint256",
							"name": "val",
							"type": "uint256"
						}
					],
					"name": "updater",
					"outputs": [],
					"stateMutability": "nonpayable",
					"type": "function"
				}
			],
			"devdoc": {
				"kind": "dev",
				"methods": {},
				"version": 1
			},
			"evm": {
				"assembly": "    /* \"contracts/demo.sol\":74:3874  contract demo{... */\n  mstore(0x40, 0x80)\n    /* \"contracts/demo.sol\":94:127  string public str = \"HELLO WORLD\" */\n  mload(0x40)\n  dup1\n  0x40\n  add\n  0x40\n  mstore\n  dup1\n  0x0b\n  dup2\n  mstore\n  0x20\n  add\n  0x48454c4c4f20574f524c44000000000000000000000000000000000000000000\n  dup2\n  mstore\n  pop\n  0x00\n  swap1\n  dup2\n  tag_1\n  swap2\n  swap1\n  tag_2\n  jump\t// in\ntag_1:\n  pop\n    /* \"contracts/demo.sol\":214:215  7 */\n  0x07\n    /* \"contracts/demo.sol\":195:215  uint public num  = 7 */\n  0x01\n  sstore\n    /* \"contracts/demo.sol\":2263:2305  0xAb8483F64d9C6d1EcF9b849Ae677dD3315835cb2 */\n  0xab8483f64d9c6d1ecf9b849ae677dd3315835cb2\n    /* \"contracts/demo.sol\":2241:2305  address public addr = 0xAb8483F64d9C6d1EcF9b849Ae677dD3315835cb2 */\n  0x02\n  exp(0x0100, 0x01)\n  dup2\n  sload\n  dup2\n  0xffffffffffffffffffffffffffffffffffffffff\n  mul\n  not\n  and\n  swap1\n  dup4\n  0xffffffffffffffffffffffffffffffffffffffff\n  and\n  mul\n  or\n  swap1\n  sstore\n  pop\n    /* \"contracts/demo.sol\":3565:3591  uint[3] public brr=[1,2,3] */\n  mload(0x40)\n  dup1\n  0x60\n  add\n  0x40\n  mstore\n  dup1\n    /* \"contracts/demo.sol\":3585:3586  1 */\n  0x01\n    /* \"contracts/demo.sol\":3565:3591  uint[3] public brr=[1,2,3] */\n  0xff\n  and\n  dup2\n  mstore\n  0x20\n  add\n    /* \"contracts/demo.sol\":3587:3588  2 */\n  0x02\n    /* \"contracts/demo.sol\":3565:3591  uint[3] public brr=[1,2,3] */\n  0xff\n  and\n  dup2\n  mstore\n  0x20\n  add\n    /* \"contracts/demo.sol\":3589:3590  3 */\n  0x03\n    /* \"contracts/demo.sol\":3565:3591  uint[3] public brr=[1,2,3] */\n  0xff\n  and\n  dup2\n  mstore\n  pop\n  0x09\n  swap1\n  0x03\n  tag_3\n  swap3\n  swap2\n  swap1\n  tag_4\n  jump\t// in\ntag_3:\n  pop\n    /* \"contracts/demo.sol\":74:3874  contract demo{... */\n  callvalue\n  dup1\n  iszero\n  tag_5\n  jumpi\n  0x00\n  dup1\n  revert\ntag_5:\n  pop\n  jump(tag_6)\ntag_4:\n  dup3\n  0x03\n  dup2\n  add\n  swap3\n  dup3\n  iszero\n  tag_7\n  jumpi\n  swap2\n  0x20\n  mul\n  dup3\n  add\ntag_8:\n  dup3\n  dup2\n  gt\n  iszero\n  tag_9\n  jumpi\n  dup3\n  mload\n  dup3\n  swap1\n  0xff\n  and\n  swap1\n  sstore\n  swap2\n  0x20\n  add\n  swap2\n  swap1\n  0x01\n  add\n  swap1\n  jump(tag_8)\ntag_9:\ntag_7:\n  pop\n  swap1\n  pop\n  tag_10\n  swap2\n  swap1\n  tag_11\n  jump\t// in\ntag_10:\n  pop\n  swap1\n  jump\t// out\ntag_11:\ntag_12:\n  dup1\n  dup3\n  gt\n  iszero\n  tag_13\n  jumpi\n  0x00\n  dup2\n  0x00\n  swap1\n  sstore\n  pop\n  0x01\n  add\n  jump(tag_12)\ntag_13:\n  pop\n  swap1\n  jump\t// out\n    /* \"#utility.yul\":7:106   */\ntag_14:\n    /* \"#utility.yul\":59:65   */\n  0x00\n    /* \"#utility.yul\":93:98   */\n  dup2\n    /* \"#utility.yul\":87:99   */\n  mload\n    /* \"#utility.yul\":77:99   */\n  swap1\n  pop\n    /* \"#utility.yul\":7:106   */\n  swap2\n  swap1\n  pop\n  jump\t// out\n    /* \"#utility.yul\":112:292   */\ntag_15:\n    /* \"#utility.yul\":160:237   */\n  0x4e487b7100000000000000000000000000000000000000000000000000000000\n    /* \"#utility.yul\":157:158   */\n  0x00\n    /* \"#utility.yul\":150:238   */\n  mstore\n    /* \"#utility.yul\":257:261   */\n  0x41\n    /* \"#utility.yul\":254:255   */\n  0x04\n    /* \"#utility.yul\":247:262   */\n  mstore\n    /* \"#utility.yul\":281:285   */\n  0x24\n    /* \"#utility.yul\":278:279   */\n  0x00\n    /* \"#utility.yul\":271:286   */\n  revert\n    /* \"#utility.yul\":298:478   */\ntag_16:\n    /* \"#utility.yul\":346:423   */\n  0x4e487b7100000000000000000000000000000000000000000000000000000000\n    /* \"#utility.yul\":343:344   */\n  0x00\n    /* \"#utility.yul\":336:424   */\n  mstore\n    /* \"#utility.yul\":443:447   */\n  0x22\n    /* \"#utility.yul\":440:441   */\n  0x04\n    /* \"#utility.yul\":433:448   */\n  mstore\n    /* \"#utility.yul\":467:471   */\n  0x24\n    /* \"#utility.yul\":464:465   */\n  0x00\n    /* \"#utility.yul\":457:472   */\n  revert\n    /* \"#utility.yul\":484:804   */\ntag_17:\n    /* \"#utility.yul\":528:534   */\n  0x00\n    /* \"#utility.yul\":565:566   */\n  0x02\n    /* \"#utility.yul\":559:563   */\n  dup3\n    /* \"#utility.yul\":555:567   */\n  div\n    /* \"#utility.yul\":545:567   */\n  swap1\n  pop\n    /* \"#utility.yul\":612:613   */\n  0x01\n    /* \"#utility.yul\":606:610   */\n  dup3\n    /* \"#utility.yul\":602:614   */\n  and\n    /* \"#utility.yul\":633:651   */\n  dup1\n    /* \"#utility.yul\":623:704   */\n  tag_39\n  jumpi\n    /* \"#utility.yul\":689:693   */\n  0x7f\n    /* \"#utility.yul\":681:687   */\n  dup3\n    /* \"#utility.yul\":677:694   */\n  and\n    /* \"#utility.yul\":667:694   */\n  swap2\n  pop\n    /* \"#utility.yul\":623:704   */\ntag_39:\n    /* \"#utility.yul\":751:753   */\n  0x20\n    /* \"#utility.yul\":743:749   */\n  dup3\n    /* \"#utility.yul\":740:754   */\n  lt\n    /* \"#utility.yul\":720:738   */\n  dup2\n    /* \"#utility.yul\":717:755   */\n  sub\n    /* \"#utility.yul\":714:798   */\n  tag_40\n  jumpi\n    /* \"#utility.yul\":770:788   */\n  tag_41\n  tag_16\n  jump\t// in\ntag_41:\n    /* \"#utility.yul\":714:798   */\ntag_40:\n    /* \"#utility.yul\":535:804   */\n  pop\n    /* \"#utility.yul\":484:804   */\n  swap2\n  swap1\n  pop\n  jump\t// out\n    /* \"#utility.yul\":810:951   */\ntag_18:\n    /* \"#utility.yul\":859:863   */\n  0x00\n    /* \"#utility.yul\":882:885   */\n  dup2\n    /* \"#utility.yul\":874:885   */\n  swap1\n  pop\n    /* \"#utility.yul\":905:908   */\n  dup2\n    /* \"#utility.yul\":902:903   */\n  0x00\n    /* \"#utility.yul\":895:909   */\n  mstore\n    /* \"#utility.yul\":939:943   */\n  0x20\n    /* \"#utility.yul\":936:937   */\n  0x00\n    /* \"#utility.yul\":926:944   */\n  keccak256\n    /* \"#utility.yul\":918:944   */\n  swap1\n  pop\n    /* \"#utility.yul\":810:951   */\n  swap2\n  swap1\n  pop\n  jump\t// out\n    /* \"#utility.yul\":957:1050   */\ntag_19:\n    /* \"#utility.yul\":994:1000   */\n  0x00\n    /* \"#utility.yul\":1041:1043   */\n  0x20\n    /* \"#utility.yul\":1036:1038   */\n  0x1f\n    /* \"#utility.yul\":1029:1034   */\n  dup4\n    /* \"#utility.yul\":1025:1039   */\n  add\n    /* \"#utility.yul\":1021:1044   */\n  div\n    /* \"#utility.yul\":1011:1044   */\n  swap1\n  pop\n    /* \"#utility.yul\":957:1050   */\n  swap2\n  swap1\n  pop\n  jump\t// out\n    /* \"#utility.yul\":1056:1163   */\ntag_20:\n    /* \"#utility.yul\":1100:1108   */\n  0x00\n    /* \"#utility.yul\":1150:1155   */\n  dup3\n    /* \"#utility.yul\":1144:1148   */\n  dup3\n    /* \"#utility.yul\":1140:1156   */\n  shl\n    /* \"#utility.yul\":1119:1156   */\n  swap1\n  pop\n    /* \"#utility.yul\":1056:1163   */\n  swap3\n  swap2\n  pop\n  pop\n  jump\t// out\n    /* \"#utility.yul\":1169:1562   */\ntag_21:\n    /* \"#utility.yul\":1238:1244   */\n  0x00\n    /* \"#utility.yul\":1288:1289   */\n  0x08\n    /* \"#utility.yul\":1276:1286   */\n  dup4\n    /* \"#utility.yul\":1272:1290   */\n  mul\n    /* \"#utility.yul\":1311:1408   */\n  tag_46\n    /* \"#utility.yul\":1341:1407   */\n  0xffffffffffffffffffffffffffffffffffffffffffffffffffffffffffffffff\n    /* \"#utility.yul\":1330:1339   */\n  dup3\n    /* \"#utility.yul\":1311:1408   */\n  tag_20\n  jump\t// in\ntag_46:\n    /* \"#utility.yul\":1429:1468   */\n  tag_47\n    /* \"#utility.yul\":1459:1467   */\n  dup7\n    /* \"#utility.yul\":1448:1457   */\n  dup4\n    /* \"#utility.yul\":1429:1468   */\n  tag_20\n  jump\t// in\ntag_47:\n    /* \"#utility.yul\":1417:1468   */\n  swap6\n  pop\n    /* \"#utility.yul\":1501:1505   */\n  dup1\n    /* \"#utility.yul\":1497:1506   */\n  not\n    /* \"#utility.yul\":1490:1495   */\n  dup5\n    /* \"#utility.yul\":1486:1507   */\n  and\n    /* \"#utility.yul\":1477:1507   */\n  swap4\n  pop\n    /* \"#utility.yul\":1550:1554   */\n  dup1\n    /* \"#utility.yul\":1540:1548   */\n  dup7\n    /* \"#utility.yul\":1536:1555   */\n  and\n    /* \"#utility.yul\":1529:1534   */\n  dup5\n    /* \"#utility.yul\":1526:1556   */\n  or\n    /* \"#utility.yul\":1516:1556   */\n  swap3\n  pop\n    /* \"#utility.yul\":1245:1562   */\n  pop\n  pop\n    /* \"#utility.yul\":1169:1562   */\n  swap4\n  swap3\n  pop\n  pop\n  pop\n  jump\t// out\n    /* \"#utility.yul\":1568:1645   */\ntag_22:\n    /* \"#utility.yul\":1605:1612   */\n  0x00\n    /* \"#utility.yul\":1634:1639   */\n  dup2\n    /* \"#utility.yul\":1623:1639   */\n  swap1\n  pop\n    /* \"#utility.yul\":1568:1645   */\n  swap2\n  swap1\n  pop\n  jump\t// out\n    /* \"#utility.yul\":1651:1711   */\ntag_23:\n    /* \"#utility.yul\":1679:1682   */\n  0x00\n    /* \"#utility.yul\":1700:1705   */\n  dup2\n    /* \"#utility.yul\":1693:1705   */\n  swap1\n  pop\n    /* \"#utility.yul\":1651:1711   */\n  swap2\n  swap1\n  pop\n  jump\t// out\n    /* \"#utility.yul\":1717:1859   */\ntag_24:\n    /* \"#utility.yul\":1767:1776   */\n  0x00\n    /* \"#utility.yul\":1800:1853   */\n  tag_51\n    /* \"#utility.yul\":1818:1852   */\n  tag_52\n    /* \"#utility.yul\":1827:1851   */\n  tag_53\n    /* \"#utility.yul\":1845:1850   */\n  dup5\n    /* \"#utility.yul\":1827:1851   */\n  tag_22\n  jump\t// in\ntag_53:\n    /* \"#utility.yul\":1818:1852   */\n  tag_23\n  jump\t// in\ntag_52:\n    /* \"#utility.yul\":1800:1853   */\n  tag_22\n  jump\t// in\ntag_51:\n    /* \"#utility.yul\":1787:1853   */\n  swap1\n  pop\n    /* \"#utility.yul\":1717:1859   */\n  swap2\n  swap1\n  pop\n  jump\t// out\n    /* \"#utility.yul\":1865:1940   */\ntag_25:\n    /* \"#utility.yul\":1908:1911   */\n  0x00\n    /* \"#utility.yul\":1929:1934   */\n  dup2\n    /* \"#utility.yul\":1922:1934   */\n  swap1\n  pop\n    /* \"#utility.yul\":1865:1940   */\n  swap2\n  swap1\n  pop\n  jump\t// out\n    /* \"#utility.yul\":1946:2215   */\ntag_26:\n    /* \"#utility.yul\":2056:2095   */\n  tag_56\n    /* \"#utility.yul\":2087:2094   */\n  dup4\n    /* \"#utility.yul\":2056:2095   */\n  tag_24\n  jump\t// in\ntag_56:\n    /* \"#utility.yul\":2117:2208   */\n  tag_57\n    /* \"#utility.yul\":2166:2207   */\n  tag_58\n    /* \"#utility.yul\":2190:2206   */\n  dup3\n    /* \"#utility.yul\":2166:2207   */\n  tag_25\n  jump\t// in\ntag_58:\n    /* \"#utility.yul\":2158:2164   */\n  dup5\n    /* \"#utility.yul\":2151:2155   */\n  dup5\n    /* \"#utility.yul\":2145:2156   */\n  sload\n    /* \"#utility.yul\":2117:2208   */\n  tag_21\n  jump\t// in\ntag_57:\n    /* \"#utility.yul\":2111:2115   */\n  dup3\n    /* \"#utility.yul\":2104:2209   */\n  sstore\n    /* \"#utility.yul\":2022:2215   */\n  pop\n    /* \"#utility.yul\":1946:2215   */\n  pop\n  pop\n  pop\n  jump\t// out\n    /* \"#utility.yul\":2221:2294   */\ntag_27:\n    /* \"#utility.yul\":2266:2269   */\n  0x00\n    /* \"#utility.yul\":2221:2294   */\n  swap1\n  jump\t// out\n    /* \"#utility.yul\":2300:2489   */\ntag_28:\n    /* \"#utility.yul\":2377:2409   */\n  tag_61\n  tag_27\n  jump\t// in\ntag_61:\n    /* \"#utility.yul\":2418:2483   */\n  tag_62\n    /* \"#utility.yul\":2476:2482   */\n  dup2\n    /* \"#utility.yul\":2468:2474   */\n  dup5\n    /* \"#utility.yul\":2462:2466   */\n  dup5\n    /* \"#utility.yul\":2418:2483   */\n  tag_26\n  jump\t// in\ntag_62:\n    /* \"#utility.yul\":2353:2489   */\n  pop\n    /* \"#utility.yul\":2300:2489   */\n  pop\n  pop\n  jump\t// out\n    /* \"#utility.yul\":2495:2681   */\ntag_29:\n    /* \"#utility.yul\":2555:2675   */\ntag_64:\n    /* \"#utility.yul\":2572:2575   */\n  dup2\n    /* \"#utility.yul\":2565:2570   */\n  dup2\n    /* \"#utility.yul\":2562:2576   */\n  lt\n    /* \"#utility.yul\":2555:2675   */\n  iszero\n  tag_66\n  jumpi\n    /* \"#utility.yul\":2626:2665   */\n  tag_67\n    /* \"#utility.yul\":2663:2664   */\n  0x00\n    /* \"#utility.yul\":2656:2661   */\n  dup3\n    /* \"#utility.yul\":2626:2665   */\n  tag_28\n  jump\t// in\ntag_67:\n    /* \"#utility.yul\":2599:2600   */\n  0x01\n    /* \"#utility.yul\":2592:2597   */\n  dup2\n    /* \"#utility.yul\":2588:2601   */\n  add\n    /* \"#utility.yul\":2579:2601   */\n  swap1\n  pop\n    /* \"#utility.yul\":2555:2675   */\n  jump(tag_64)\ntag_66:\n    /* \"#utility.yul\":2495:2681   */\n  pop\n  pop\n  jump\t// out\n    /* \"#utility.yul\":2687:3230   */\ntag_30:\n    /* \"#utility.yul\":2788:2790   */\n  0x1f\n    /* \"#utility.yul\":2783:2786   */\n  dup3\n    /* \"#utility.yul\":2780:2791   */\n  gt\n    /* \"#utility.yul\":2777:3223   */\n  iszero\n  tag_69\n  jumpi\n    /* \"#utility.yul\":2822:2860   */\n  tag_70\n    /* \"#utility.yul\":2854:2859   */\n  dup2\n    /* \"#utility.yul\":2822:2860   */\n  tag_18\n  jump\t// in\ntag_70:\n    /* \"#utility.yul\":2906:2935   */\n  tag_71\n    /* \"#utility.yul\":2924:2934   */\n  dup5\n    /* \"#utility.yul\":2906:2935   */\n  tag_19\n  jump\t// in\ntag_71:\n    /* \"#utility.yul\":2896:2904   */\n  dup2\n    /* \"#utility.yul\":2892:2936   */\n  add\n    /* \"#utility.yul\":3089:3091   */\n  0x20\n    /* \"#utility.yul\":3077:3087   */\n  dup6\n    /* \"#utility.yul\":3074:3092   */\n  lt\n    /* \"#utility.yul\":3071:3120   */\n  iszero\n  tag_72\n  jumpi\n    /* \"#utility.yul\":3110:3118   */\n  dup2\n    /* \"#utility.yul\":3095:3118   */\n  swap1\n  pop\n    /* \"#utility.yul\":3071:3120   */\ntag_72:\n    /* \"#utility.yul\":3133:3213   */\n  tag_73\n    /* \"#utility.yul\":3189:3211   */\n  tag_74\n    /* \"#utility.yul\":3207:3210   */\n  dup6\n    /* \"#utility.yul\":3189:3211   */\n  tag_19\n  jump\t// in\ntag_74:\n    /* \"#utility.yul\":3179:3187   */\n  dup4\n    /* \"#utility.yul\":3175:3212   */\n  add\n    /* \"#utility.yul\":3162:3173   */\n  dup3\n    /* \"#utility.yul\":3133:3213   */\n  tag_29\n  jump\t// in\ntag_73:\n    /* \"#utility.yul\":2792:3223   */\n  pop\n  pop\n    /* \"#utility.yul\":2777:3223   */\ntag_69:\n    /* \"#utility.yul\":2687:3230   */\n  pop\n  pop\n  pop\n  jump\t// out\n    /* \"#utility.yul\":3236:3353   */\ntag_31:\n    /* \"#utility.yul\":3290:3298   */\n  0x00\n    /* \"#utility.yul\":3340:3345   */\n  dup3\n    /* \"#utility.yul\":3334:3338   */\n  dup3\n    /* \"#utility.yul\":3330:3346   */\n  shr\n    /* \"#utility.yul\":3309:3346   */\n  swap1\n  pop\n    /* \"#utility.yul\":3236:3353   */\n  swap3\n  swap2\n  pop\n  pop\n  jump\t// out\n    /* \"#utility.yul\":3359:3528   */\ntag_32:\n    /* \"#utility.yul\":3403:3409   */\n  0x00\n    /* \"#utility.yul\":3436:3487   */\n  tag_77\n    /* \"#utility.yul\":3484:3485   */\n  0x00\n    /* \"#utility.yul\":3480:3486   */\n  not\n    /* \"#utility.yul\":3472:3477   */\n  dup5\n    /* \"#utility.yul\":3469:3470   */\n  0x08\n    /* \"#utility.yul\":3465:3478   */\n  mul\n    /* \"#utility.yul\":3436:3487   */\n  tag_31\n  jump\t// in\ntag_77:\n    /* \"#utility.yul\":3432:3488   */\n  not\n    /* \"#utility.yul\":3517:3521   */\n  dup1\n    /* \"#utility.yul\":3511:3515   */\n  dup4\n    /* \"#utility.yul\":3507:3522   */\n  and\n    /* \"#utility.yul\":3497:3522   */\n  swap2\n  pop\n    /* \"#utility.yul\":3410:3528   */\n  pop\n    /* \"#utility.yul\":3359:3528   */\n  swap3\n  swap2\n  pop\n  pop\n  jump\t// out\n    /* \"#utility.yul\":3533:3828   */\ntag_33:\n    /* \"#utility.yul\":3609:3613   */\n  0x00\n    /* \"#utility.yul\":3755:3784   */\n  tag_79\n    /* \"#utility.yul\":3780:3783   */\n  dup4\n    /* \"#utility.yul\":3774:3778   */\n  dup4\n    /* \"#utility.yul\":3755:3784   */\n  tag_32\n  jump\t// in\ntag_79:\n    /* \"#utility.yul\":3747:3784   */\n  swap2\n  pop\n    /* \"#utility.yul\":3817:3820   */\n  dup3\n    /* \"#utility.yul\":3814:3815   */\n  0x02\n    /* \"#utility.yul\":3810:3821   */\n  mul\n    /* \"#utility.yul\":3804:3808   */\n  dup3\n    /* \"#utility.yul\":3801:3822   */\n  or\n    /* \"#utility.yul\":3793:3822   */\n  swap1\n  pop\n    /* \"#utility.yul\":3533:3828   */\n  swap3\n  swap2\n  pop\n  pop\n  jump\t// out\n    /* \"#utility.yul\":3833:5228   */\ntag_2:\n    /* \"#utility.yul\":3950:3987   */\n  tag_81\n    /* \"#utility.yul\":3983:3986   */\n  dup3\n    /* \"#utility.yul\":3950:3987   */\n  tag_14\n  jump\t// in\ntag_81:\n    /* \"#utility.yul\":4052:4070   */\n  0xffffffffffffffff\n    /* \"#utility.yul\":4044:4050   */\n  dup2\n    /* \"#utility.yul\":4041:4071   */\n  gt\n    /* \"#utility.yul\":4038:4094   */\n  iszero\n  tag_82\n  jumpi\n    /* \"#utility.yul\":4074:4092   */\n  tag_83\n  tag_15\n  jump\t// in\ntag_83:\n    /* \"#utility.yul\":4038:4094   */\ntag_82:\n    /* \"#utility.yul\":4118:4156   */\n  tag_84\n    /* \"#utility.yul\":4150:4154   */\n  dup3\n    /* \"#utility.yul\":4144:4155   */\n  sload\n    /* \"#utility.yul\":4118:4156   */\n  tag_17\n  jump\t// in\ntag_84:\n    /* \"#utility.yul\":4203:4270   */\n  tag_85\n    /* \"#utility.yul\":4263:4269   */\n  dup3\n    /* \"#utility.yul\":4255:4261   */\n  dup3\n    /* \"#utility.yul\":4249:4253   */\n  dup6\n    /* \"#utility.yul\":4203:4270   */\n  tag_30\n  jump\t// in\ntag_85:\n    /* \"#utility.yul\":4297:4298   */\n  0x00\n    /* \"#utility.yul\":4321:4325   */\n  0x20\n    /* \"#utility.yul\":4308:4325   */\n  swap1\n  pop\n    /* \"#utility.yul\":4353:4355   */\n  0x1f\n    /* \"#utility.yul\":4345:4351   */\n  dup4\n    /* \"#utility.yul\":4342:4356   */\n  gt\n    /* \"#utility.yul\":4370:4371   */\n  0x01\n    /* \"#utility.yul\":4365:4983   */\n  dup2\n  eq\n  tag_87\n  jumpi\n    /* \"#utility.yul\":5027:5028   */\n  0x00\n    /* \"#utility.yul\":5044:5050   */\n  dup5\n    /* \"#utility.yul\":5041:5118   */\n  iszero\n  tag_88\n  jumpi\n    /* \"#utility.yul\":5093:5102   */\n  dup3\n    /* \"#utility.yul\":5088:5091   */\n  dup8\n    /* \"#utility.yul\":5084:5103   */\n  add\n    /* \"#utility.yul\":5078:5104   */\n  mload\n    /* \"#utility.yul\":5069:5104   */\n  swap1\n  pop\n    /* \"#utility.yul\":5041:5118   */\ntag_88:\n    /* \"#utility.yul\":5144:5211   */\n  tag_89\n    /* \"#utility.yul\":5204:5210   */\n  dup6\n    /* \"#utility.yul\":5197:5202   */\n  dup3\n    /* \"#utility.yul\":5144:5211   */\n  tag_33\n  jump\t// in\ntag_89:\n    /* \"#utility.yul\":5138:5142   */\n  dup7\n    /* \"#utility.yul\":5131:5212   */\n  sstore\n    /* \"#utility.yul\":5000:5222   */\n  pop\n    /* \"#utility.yul\":4335:5222   */\n  jump(tag_86)\n    /* \"#utility.yul\":4365:4983   */\ntag_87:\n    /* \"#utility.yul\":4417:4421   */\n  0x1f\n    /* \"#utility.yul\":4413:4422   */\n  not\n    /* \"#utility.yul\":4405:4411   */\n  dup5\n    /* \"#utility.yul\":4401:4423   */\n  and\n    /* \"#utility.yul\":4451:4488   */\n  tag_90\n    /* \"#utility.yul\":4483:4487   */\n  dup7\n    /* \"#utility.yul\":4451:4488   */\n  tag_18\n  jump\t// in\ntag_90:\n    /* \"#utility.yul\":4510:4511   */\n  0x00\n    /* \"#utility.yul\":4524:4732   */\ntag_91:\n    /* \"#utility.yul\":4538:4545   */\n  dup3\n    /* \"#utility.yul\":4535:4536   */\n  dup2\n    /* \"#utility.yul\":4532:4546   */\n  lt\n    /* \"#utility.yul\":4524:4732   */\n  iszero\n  tag_93\n  jumpi\n    /* \"#utility.yul\":4617:4626   */\n  dup5\n    /* \"#utility.yul\":4612:4615   */\n  dup10\n    /* \"#utility.yul\":4608:4627   */\n  add\n    /* \"#utility.yul\":4602:4628   */\n  mload\n    /* \"#utility.yul\":4594:4600   */\n  dup3\n    /* \"#utility.yul\":4587:4629   */\n  sstore\n    /* \"#utility.yul\":4668:4669   */\n  0x01\n    /* \"#utility.yul\":4660:4666   */\n  dup3\n    /* \"#utility.yul\":4656:4670   */\n  add\n    /* \"#utility.yul\":4646:4670   */\n  swap2\n  pop\n    /* \"#utility.yul\":4715:4717   */\n  0x20\n    /* \"#utility.yul\":4704:4713   */\n  dup6\n    /* \"#utility.yul\":4700:4718   */\n  add\n    /* \"#utility.yul\":4687:4718   */\n  swap5\n  pop\n    /* \"#utility.yul\":4561:4565   */\n  0x20\n    /* \"#utility.yul\":4558:4559   */\n  dup2\n    /* \"#utility.yul\":4554:4566   */\n  add\n    /* \"#utility.yul\":4549:4566   */\n  swap1\n  pop\n    /* \"#utility.yul\":4524:4732   */\n  jump(tag_91)\ntag_93:\n    /* \"#utility.yul\":4760:4766   */\n  dup7\n    /* \"#utility.yul\":4751:4758   */\n  dup4\n    /* \"#utility.yul\":4748:4767   */\n  lt\n    /* \"#utility.yul\":4745:4924   */\n  iszero\n  tag_94\n  jumpi\n    /* \"#utility.yul\":4818:4827   */\n  dup5\n    /* \"#utility.yul\":4813:4816   */\n  dup10\n    /* \"#utility.yul\":4809:4828   */\n  add\n    /* \"#utility.yul\":4803:4829   */\n  mload\n    /* \"#utility.yul\":4861:4909   */\n  tag_95\n    /* \"#utility.yul\":4903:4907   */\n  0x1f\n    /* \"#utility.yul\":4895:4901   */\n  dup10\n    /* \"#utility.yul\":4891:4908   */\n  and\n    /* \"#utility.yul\":4880:4889   */\n  dup3\n    /* \"#utility.yul\":4861:4909   */\n  tag_32\n  jump\t// in\ntag_95:\n    /* \"#utility.yul\":4853:4859   */\n  dup4\n    /* \"#utility.yul\":4846:4910   */\n  sstore\n    /* \"#utility.yul\":4768:4924   */\n  pop\n    /* \"#utility.yul\":4745:4924   */\ntag_94:\n    /* \"#utility.yul\":4970:4971   */\n  0x01\n    /* \"#utility.yul\":4966:4967   */\n  0x02\n    /* \"#utility.yul\":4958:4964   */\n  dup9\n    /* \"#utility.yul\":4954:4968   */\n  mul\n    /* \"#utility.yul\":4950:4972   */\n  add\n    /* \"#utility.yul\":4944:4948   */\n  dup9\n    /* \"#utility.yul\":4937:4973   */\n  sstore\n    /* \"#utility.yul\":4372:4983   */\n  pop\n  pop\n  pop\n    /* \"#utility.yul\":4335:5222   */\ntag_86:\n  pop\n    /* \"#utility.yul\":3925:5228   */\n  pop\n  pop\n  pop\n    /* \"#utility.yul\":3833:5228   */\n  pop\n  pop\n  jump\t// out\n    /* \"contracts/demo.sol\":74:3874  contract demo{... */\ntag_6:\n  dataSize(sub_0)\n  dup1\n  dataOffset(sub_0)\n  0x00\n  codecopy\n  0x00\n  return\nstop\n\nsub_0: assembly {\n        /* \"contracts/demo.sol\":74:3874  contract demo{... */\n      mstore(0x40, 0x80)\n      callvalue\n      dup1\n      iszero\n      tag_1\n      jumpi\n      0x00\n      dup1\n      revert\n    tag_1:\n      pop\n      jumpi(tag_2, lt(calldatasize, 0x04))\n      shr(0xe0, calldataload(0x00))\n      dup1\n      0x767800de\n      gt\n      tag_28\n      jumpi\n      dup1\n      0x9f87bd86\n      gt\n      tag_29\n      jumpi\n      dup1\n      0xc24cb0a8\n      gt\n      tag_30\n      jumpi\n      dup1\n      0xc24cb0a8\n      eq\n      tag_24\n      jumpi\n      dup1\n      0xc27fc305\n      eq\n      tag_25\n      jumpi\n      dup1\n      0xd092e186\n      eq\n      tag_26\n      jumpi\n      dup1\n      0xd423740b\n      eq\n      tag_27\n      jumpi\n      jump(tag_2)\n    tag_30:\n      dup1\n      0x9f87bd86\n      eq\n      tag_21\n      jumpi\n      dup1\n      0xa92100cb\n      eq\n      tag_22\n      jumpi\n      dup1\n      0xc15bae84\n      eq\n      tag_23\n      jumpi\n      jump(tag_2)\n    tag_29:\n      dup1\n      0x767800de\n      eq\n      tag_15\n      jumpi\n      dup1\n      0x76c390fe\n      eq\n      tag_16\n      jumpi\n      dup1\n      0x7a38f9eb\n      eq\n      tag_17\n      jumpi\n      dup1\n      0x890eba68\n      eq\n      tag_18\n      jumpi\n      dup1\n      0x90b5561d\n      eq\n      tag_19\n      jumpi\n      dup1\n      0x993a04b7\n      eq\n      tag_20\n      jumpi\n      jump(tag_2)\n    tag_28:\n      dup1\n      0x4e70b1dc\n      gt\n      tag_31\n      jumpi\n      dup1\n      0x4e70b1dc\n      eq\n      tag_9\n      jumpi\n      dup1\n      0x5606de36\n      eq\n      tag_10\n      jumpi\n      dup1\n      0x56d88e27\n      eq\n      tag_11\n      jumpi\n      dup1\n      0x5e3be076\n      eq\n      tag_12\n      jumpi\n      dup1\n      0x5ee7bbc5\n      eq\n      tag_13\n      jumpi\n      dup1\n      0x71e5ee5f\n      eq\n      tag_14\n      jumpi\n      jump(tag_2)\n    tag_31:\n      dup1\n      0x0c1b7c1e\n      eq\n      tag_3\n      jumpi\n      dup1\n      0x10bbd0b5\n      eq\n      tag_4\n      jumpi\n      dup1\n      0x1b08d96f\n      eq\n      tag_5\n      jumpi\n      dup1\n      0x31017fcc\n      eq\n      tag_6\n      jumpi\n      dup1\n      0x38d94193\n      eq\n      tag_7\n      jumpi\n      dup1\n      0x4050fb9f\n      eq\n      tag_8\n      jumpi\n    tag_2:\n      0x00\n      dup1\n      revert\n        /* \"contracts/demo.sol\":2382:2596  function display()public view returns(uint[5] memory){... */\n    tag_3:\n      tag_32\n      tag_33\n      jump\t// in\n    tag_32:\n      mload(0x40)\n      tag_34\n      swap2\n      swap1\n      tag_35\n      jump\t// in\n    tag_34:\n      mload(0x40)\n      dup1\n      swap2\n      sub\n      swap1\n      return\n        /* \"contracts/demo.sol\":2087:2174  function Even(uint a) public isEven(a) pure returns(bool){... */\n    tag_4:\n      tag_36\n      0x04\n      dup1\n      calldatasize\n      sub\n      dup2\n      add\n      swap1\n      tag_37\n      swap2\n      swap1\n      tag_38\n      jump\t// in\n    tag_37:\n      tag_39\n      jump\t// in\n    tag_36:\n      mload(0x40)\n      tag_40\n      swap2\n      swap1\n      tag_41\n      jump\t// in\n    tag_40:\n      mload(0x40)\n      dup1\n      swap2\n      sub\n      swap1\n      return\n        /* \"contracts/demo.sol\":1123:1194  function ret () public view returns(bool){... */\n    tag_5:\n      tag_42\n      tag_43\n      jump\t// in\n    tag_42:\n      mload(0x40)\n      tag_44\n      swap2\n      swap1\n      tag_41\n      jump\t// in\n    tag_44:\n      mload(0x40)\n      dup1\n      swap2\n      sub\n      swap1\n      return\n        /* \"contracts/demo.sol\":2733:2809  function updater(uint idx ,uint val) public{... */\n    tag_6:\n      tag_45\n      0x04\n      dup1\n      calldatasize\n      sub\n      dup2\n      add\n      swap1\n      tag_46\n      swap2\n      swap1\n      tag_47\n      jump\t// in\n    tag_46:\n      tag_48\n      jump\t// in\n    tag_45:\n      stop\n        /* \"contracts/demo.sol\":2843:2862  uint[] public array */\n    tag_7:\n      tag_49\n      0x04\n      dup1\n      calldatasize\n      sub\n      dup2\n      add\n      swap1\n      tag_50\n      swap2\n      swap1\n      tag_38\n      jump\t// in\n    tag_50:\n      tag_51\n      jump\t// in\n    tag_49:\n      mload(0x40)\n      tag_52\n      swap2\n      swap1\n      tag_53\n      jump\t// in\n    tag_52:\n      mload(0x40)\n      dup1\n      swap2\n      sub\n      swap1\n      return\n        /* \"contracts/demo.sol\":802:1029  function conditionals(uint num1) public pure returns(uint){... */\n    tag_8:\n      tag_54\n      0x04\n      dup1\n      calldatasize\n      sub\n      dup2\n      add\n      swap1\n      tag_55\n      swap2\n      swap1\n      tag_38\n      jump\t// in\n    tag_55:\n      tag_56\n      jump\t// in\n    tag_54:\n      mload(0x40)\n      tag_57\n      swap2\n      swap1\n      tag_53\n      jump\t// in\n    tag_57:\n      mload(0x40)\n      dup1\n      swap2\n      sub\n      swap1\n      return\n        /* \"contracts/demo.sol\":195:215  uint public num  = 7 */\n    tag_9:\n      tag_58\n      tag_59\n      jump\t// in\n    tag_58:\n      mload(0x40)\n      tag_60\n      swap2\n      swap1\n      tag_53\n      jump\t// in\n    tag_60:\n      mload(0x40)\n      dup1\n      swap2\n      sub\n      swap1\n      return\n        /* \"contracts/demo.sol\":3565:3591  uint[3] public brr=[1,2,3] */\n    tag_10:\n      tag_61\n      0x04\n      dup1\n      calldatasize\n      sub\n      dup2\n      add\n      swap1\n      tag_62\n      swap2\n      swap1\n      tag_38\n      jump\t// in\n    tag_62:\n      tag_63\n      jump\t// in\n    tag_61:\n      mload(0x40)\n      tag_64\n      swap2\n      swap1\n      tag_53\n      jump\t// in\n    tag_64:\n      mload(0x40)\n      dup1\n      swap2\n      sub\n      swap1\n      return\n        /* \"contracts/demo.sol\":3066:3144  function len() public view returns(uint){... */\n    tag_11:\n      tag_65\n      tag_66\n      jump\t// in\n    tag_65:\n      mload(0x40)\n      tag_67\n      swap2\n      swap1\n      tag_53\n      jump\t// in\n    tag_67:\n      mload(0x40)\n      dup1\n      swap2\n      sub\n      swap1\n      return\n        /* \"contracts/demo.sol\":3753:3869  function fstorage() public view{... */\n    tag_12:\n      tag_68\n      tag_69\n      jump\t// in\n    tag_68:\n      stop\n        /* \"contracts/demo.sol\":2635:2727  function singledisplay(uint idx) public view returns(uint){... */\n    tag_13:\n      tag_70\n      0x04\n      dup1\n      calldatasize\n      sub\n      dup2\n      add\n      swap1\n      tag_71\n      swap2\n      swap1\n      tag_38\n      jump\t// in\n    tag_71:\n      tag_72\n      jump\t// in\n    tag_70:\n      mload(0x40)\n      tag_73\n      swap2\n      swap1\n      tag_53\n      jump\t// in\n    tag_73:\n      mload(0x40)\n      dup1\n      swap2\n      sub\n      swap1\n      return\n        /* \"contracts/demo.sol\":2355:2373  uint[5] public arr */\n    tag_14:\n      tag_74\n      0x04\n      dup1\n      calldatasize\n      sub\n      dup2\n      add\n      swap1\n      tag_75\n      swap2\n      swap1\n      tag_38\n      jump\t// in\n    tag_75:\n      tag_76\n      jump\t// in\n    tag_74:\n      mload(0x40)\n      tag_77\n      swap2\n      swap1\n      tag_53\n      jump\t// in\n    tag_77:\n      mload(0x40)\n      dup1\n      swap2\n      sub\n      swap1\n      return\n        /* \"contracts/demo.sol\":2241:2305  address public addr = 0xAb8483F64d9C6d1EcF9b849Ae677dD3315835cb2 */\n    tag_15:\n      tag_78\n      tag_79\n      jump\t// in\n    tag_78:\n      mload(0x40)\n      tag_80\n      swap2\n      swap1\n      tag_81\n      jump\t// in\n    tag_80:\n      mload(0x40)\n      dup1\n      swap2\n      sub\n      swap1\n      return\n        /* \"contracts/demo.sol\":3150:3235  function Display() public view returns(uint[] memory) {... */\n    tag_16:\n      tag_82\n      tag_83\n      jump\t// in\n    tag_82:\n      mload(0x40)\n      tag_84\n      swap2\n      swap1\n      tag_85\n      jump\t// in\n    tag_84:\n      mload(0x40)\n      dup1\n      swap2\n      sub\n      swap1\n      return\n        /* \"contracts/demo.sol\":1250:1502  function isZero (uint a) public pure returns(bool){... */\n    tag_17:\n      tag_86\n      0x04\n      dup1\n      calldatasize\n      sub\n      dup2\n      add\n      swap1\n      tag_87\n      swap2\n      swap1\n      tag_38\n      jump\t// in\n    tag_87:\n      tag_88\n      jump\t// in\n    tag_86:\n      mload(0x40)\n      tag_89\n      swap2\n      swap1\n      tag_41\n      jump\t// in\n    tag_89:\n      mload(0x40)\n      dup1\n      swap2\n      sub\n      swap1\n      return\n        /* \"contracts/demo.sol\":1099:1115  bool public flag */\n    tag_18:\n      tag_90\n      tag_91\n      jump\t// in\n    tag_90:\n      mload(0x40)\n      tag_92\n      swap2\n      swap1\n      tag_41\n      jump\t// in\n    tag_92:\n      mload(0x40)\n      dup1\n      swap2\n      sub\n      swap1\n      return\n        /* \"contracts/demo.sol\":2930:2996  function insert(uint val) public{... */\n    tag_19:\n      tag_93\n      0x04\n      dup1\n      calldatasize\n      sub\n      dup2\n      add\n      swap1\n      tag_94\n      swap2\n      swap1\n      tag_38\n      jump\t// in\n    tag_94:\n      tag_95\n      jump\t// in\n    tag_93:\n      stop\n        /* \"contracts/demo.sol\":292:364  function getter() public view returns(uint){... */\n    tag_20:\n      tag_96\n      tag_97\n      jump\t// in\n    tag_96:\n      mload(0x40)\n      tag_98\n      swap2\n      swap1\n      tag_53\n      jump\t// in\n    tag_98:\n      mload(0x40)\n      dup1\n      swap2\n      sub\n      swap1\n      return\n        /* \"contracts/demo.sol\":3620:3747  function fmemory() public view{... */\n    tag_21:\n      tag_99\n      tag_100\n      jump\t// in\n    tag_99:\n      stop\n        /* \"contracts/demo.sol\":372:794  function loop() public pure returns (uint){... */\n    tag_22:\n      tag_101\n      tag_102\n      jump\t// in\n    tag_101:\n      mload(0x40)\n      tag_103\n      swap2\n      swap1\n      tag_53\n      jump\t// in\n    tag_103:\n      mload(0x40)\n      dup1\n      swap2\n      sub\n      swap1\n      return\n        /* \"contracts/demo.sol\":94:127  string public str = \"HELLO WORLD\" */\n    tag_23:\n      tag_104\n      tag_105\n      jump\t// in\n    tag_104:\n      mload(0x40)\n      tag_106\n      swap2\n      swap1\n      tag_107\n      jump\t// in\n    tag_106:\n      mload(0x40)\n      dup1\n      swap2\n      sub\n      swap1\n      return\n        /* \"contracts/demo.sol\":1528:1679  function isZeroIF (uint a) public pure returns(bool) {... */\n    tag_24:\n      tag_108\n      0x04\n      dup1\n      calldatasize\n      sub\n      dup2\n      add\n      swap1\n      tag_109\n      swap2\n      swap1\n      tag_38\n      jump\t// in\n    tag_109:\n      tag_110\n      jump\t// in\n    tag_108:\n      mload(0x40)\n      tag_111\n      swap2\n      swap1\n      tag_41\n      jump\t// in\n    tag_111:\n      mload(0x40)\n      dup1\n      swap2\n      sub\n      swap1\n      return\n        /* \"contracts/demo.sol\":1875:1948  function f1() public isTrue pure returns(uint){... */\n    tag_25:\n      tag_112\n      tag_113\n      jump\t// in\n    tag_112:\n      mload(0x40)\n      tag_114\n      swap2\n      swap1\n      tag_53\n      jump\t// in\n    tag_114:\n      mload(0x40)\n      dup1\n      swap2\n      sub\n      swap1\n      return\n        /* \"contracts/demo.sol\":3002:3060  function removeLast() public{... */\n    tag_26:\n      tag_115\n      tag_116\n      jump\t// in\n    tag_115:\n      stop\n        /* \"contracts/demo.sol\":222:286  function setter (uint _num) public {... */\n    tag_27:\n      tag_117\n      0x04\n      dup1\n      calldatasize\n      sub\n      dup2\n      add\n      swap1\n      tag_118\n      swap2\n      swap1\n      tag_38\n      jump\t// in\n    tag_118:\n      tag_119\n      jump\t// in\n    tag_117:\n      stop\n        /* \"contracts/demo.sol\":2382:2596  function display()public view returns(uint[5] memory){... */\n    tag_33:\n        /* \"contracts/demo.sol\":2420:2434  uint[5] memory */\n      tag_120\n      tag_121\n      jump\t// in\n    tag_120:\n        /* \"contracts/demo.sol\":2566:2569  arr */\n      0x03\n        /* \"contracts/demo.sol\":2559:2569  return arr */\n      0x05\n      dup1\n      0x20\n      mul\n      mload(0x40)\n      swap1\n      dup2\n      add\n      0x40\n      mstore\n      dup1\n      swap3\n      swap2\n      swap1\n      dup3\n      0x05\n      dup1\n      iszero\n      tag_123\n      jumpi\n      0x20\n      mul\n      dup3\n      add\n      swap2\n    tag_124:\n      dup2\n      sload\n      dup2\n      mstore\n      0x20\n      add\n      swap1\n      0x01\n      add\n      swap1\n      dup1\n      dup4\n      gt\n      tag_124\n      jumpi\n    tag_123:\n      pop\n      pop\n      pop\n      pop\n      pop\n      swap1\n      pop\n        /* \"contracts/demo.sol\":2382:2596  function display()public view returns(uint[5] memory){... */\n      swap1\n      jump\t// out\n        /* \"contracts/demo.sol\":2087:2174  function Even(uint a) public isEven(a) pure returns(bool){... */\n    tag_39:\n        /* \"contracts/demo.sol\":2139:2143  bool */\n      0x00\n        /* \"contracts/demo.sol\":2123:2124  a */\n      dup2\n        /* \"contracts/demo.sol\":2035:2036  0 */\n      0x00\n        /* \"contracts/demo.sol\":2032:2033  2 */\n      0x02\n        /* \"contracts/demo.sol\":2030:2031  a */\n      dup3\n        /* \"contracts/demo.sol\":2030:2033  a%2 */\n      tag_126\n      swap2\n      swap1\n      tag_127\n      jump\t// in\n    tag_126:\n        /* \"contracts/demo.sol\":2030:2036  a%2==0 */\n      eq\n        /* \"contracts/demo.sol\":2022:2061  require(a%2==0, \"Throw error not even\") */\n      tag_128\n      jumpi\n      mload(0x40)\n      0x08c379a000000000000000000000000000000000000000000000000000000000\n      dup2\n      mstore\n      0x04\n      add\n      tag_129\n      swap1\n      tag_130\n      jump\t// in\n    tag_129:\n      mload(0x40)\n      dup1\n      swap2\n      sub\n      swap1\n      revert\n    tag_128:\n        /* \"contracts/demo.sol\":2162:2166  true */\n      0x01\n        /* \"contracts/demo.sol\":2155:2166  return true */\n      swap2\n      pop\n        /* \"contracts/demo.sol\":2087:2174  function Even(uint a) public isEven(a) pure returns(bool){... */\n      pop\n      swap2\n      swap1\n      pop\n      jump\t// out\n        /* \"contracts/demo.sol\":1123:1194  function ret () public view returns(bool){... */\n    tag_43:\n        /* \"contracts/demo.sol\":1159:1163  bool */\n      0x00\n        /* \"contracts/demo.sol\":1182:1186  flag */\n      0x02\n      0x00\n      swap1\n      sload\n      swap1\n      0x0100\n      exp\n      swap1\n      div\n      0xff\n      and\n        /* \"contracts/demo.sol\":1175:1186  return flag */\n      swap1\n      pop\n        /* \"contracts/demo.sol\":1123:1194  function ret () public view returns(bool){... */\n      swap1\n      jump\t// out\n        /* \"contracts/demo.sol\":2733:2809  function updater(uint idx ,uint val) public{... */\n    tag_48:\n        /* \"contracts/demo.sol\":2798:2801  val */\n      dup1\n        /* \"contracts/demo.sol\":2787:2790  arr */\n      0x03\n        /* \"contracts/demo.sol\":2791:2794  idx */\n      dup4\n        /* \"contracts/demo.sol\":2787:2795  arr[idx] */\n      0x05\n      dup2\n      lt\n      tag_134\n      jumpi\n      tag_135\n      tag_136\n      jump\t// in\n    tag_135:\n    tag_134:\n      add\n        /* \"contracts/demo.sol\":2787:2801  arr[idx] = val */\n      dup2\n      swap1\n      sstore\n      pop\n        /* \"contracts/demo.sol\":2733:2809  function updater(uint idx ,uint val) public{... */\n      pop\n      pop\n      jump\t// out\n        /* \"contracts/demo.sol\":2843:2862  uint[] public array */\n    tag_51:\n      0x08\n      dup2\n      dup2\n      sload\n      dup2\n      lt\n      tag_138\n      jumpi\n      0x00\n      dup1\n      revert\n    tag_138:\n      swap1\n      0x00\n      mstore\n      keccak256(0x00, 0x20)\n      add\n      0x00\n      swap2\n      pop\n      swap1\n      pop\n      sload\n      dup2\n      jump\t// out\n        /* \"contracts/demo.sol\":802:1029  function conditionals(uint num1) public pure returns(uint){... */\n    tag_56:\n        /* \"contracts/demo.sol\":855:859  uint */\n      0x00\n        /* \"contracts/demo.sol\":950:952  10 */\n      0x0a\n        /* \"contracts/demo.sol\":944:948  num1 */\n      dup3\n        /* \"contracts/demo.sol\":944:952  num1 <10 */\n      lt\n        /* \"contracts/demo.sol\":940:1021  if (num1 <10) {... */\n      iszero\n      tag_141\n      jumpi\n        /* \"contracts/demo.sol\":976:980  num1 */\n      dup2\n        /* \"contracts/demo.sol\":969:980  return num1 */\n      swap1\n      pop\n      jump(tag_140)\n        /* \"contracts/demo.sol\":940:1021  if (num1 <10) {... */\n    tag_141:\n        /* \"contracts/demo.sol\":1019:1021  10 */\n      0x0a\n        /* \"contracts/demo.sol\":1014:1018  num1 */\n      dup3\n        /* \"contracts/demo.sol\":1014:1021  num1%10 */\n      tag_143\n      swap2\n      swap1\n      tag_127\n      jump\t// in\n    tag_143:\n        /* \"contracts/demo.sol\":1007:1021  return num1%10 */\n      swap1\n      pop\n        /* \"contracts/demo.sol\":802:1029  function conditionals(uint num1) public pure returns(uint){... */\n    tag_140:\n      swap2\n      swap1\n      pop\n      jump\t// out\n        /* \"contracts/demo.sol\":195:215  uint public num  = 7 */\n    tag_59:\n      sload(0x01)\n      dup2\n      jump\t// out\n        /* \"contracts/demo.sol\":3565:3591  uint[3] public brr=[1,2,3] */\n    tag_63:\n      0x09\n      dup2\n      0x03\n      dup2\n      lt\n      tag_144\n      jumpi\n      0x00\n      dup1\n      revert\n    tag_144:\n      add\n      0x00\n      swap2\n      pop\n      swap1\n      pop\n      sload\n      dup2\n      jump\t// out\n        /* \"contracts/demo.sol\":3066:3144  function len() public view returns(uint){... */\n    tag_66:\n        /* \"contracts/demo.sol\":3101:3105  uint */\n      0x00\n        /* \"contracts/demo.sol\":3124:3129  array */\n      0x08\n        /* \"contracts/demo.sol\":3124:3136  array.length */\n      dup1\n      sload\n      swap1\n      pop\n        /* \"contracts/demo.sol\":3117:3136  return array.length */\n      swap1\n      pop\n        /* \"contracts/demo.sol\":3066:3144  function len() public view returns(uint){... */\n      swap1\n      jump\t// out\n        /* \"contracts/demo.sol\":3753:3869  function fstorage() public view{... */\n    tag_69:\n        /* \"contracts/demo.sol\":3795:3814  uint[3] memory arr3 */\n      0x00\n        /* \"contracts/demo.sol\":3817:3820  brr */\n      0x09\n        /* \"contracts/demo.sol\":3795:3820  uint[3] memory arr3 = brr */\n      0x03\n      dup1\n      0x20\n      mul\n      mload(0x40)\n      swap1\n      dup2\n      add\n      0x40\n      mstore\n      dup1\n      swap3\n      swap2\n      swap1\n      dup3\n      0x03\n      dup1\n      iszero\n      tag_148\n      jumpi\n      0x20\n      mul\n      dup3\n      add\n      swap2\n    tag_149:\n      dup2\n      sload\n      dup2\n      mstore\n      0x20\n      add\n      swap1\n      0x01\n      add\n      swap1\n      dup1\n      dup4\n      gt\n      tag_149\n      jumpi\n    tag_148:\n      pop\n      pop\n      pop\n      pop\n      pop\n      swap1\n      pop\n        /* \"contracts/demo.sol\":3860:3861  9 */\n      0x09\n        /* \"contracts/demo.sol\":3850:3854  arr3 */\n      dup2\n        /* \"contracts/demo.sol\":3855:3856  2 */\n      0x02\n        /* \"contracts/demo.sol\":3850:3857  arr3[2] */\n      0x03\n      dup2\n      lt\n      tag_150\n      jumpi\n      tag_151\n      tag_136\n      jump\t// in\n    tag_151:\n    tag_150:\n      0x20\n      mul\n      add\n        /* \"contracts/demo.sol\":3850:3861  arr3[2] = 9 */\n      dup2\n      dup2\n      mstore\n      pop\n      pop\n        /* \"contracts/demo.sol\":3784:3869  {... */\n      pop\n        /* \"contracts/demo.sol\":3753:3869  function fstorage() public view{... */\n      jump\t// out\n        /* \"contracts/demo.sol\":2635:2727  function singledisplay(uint idx) public view returns(uint){... */\n    tag_72:\n        /* \"contracts/demo.sol\":2688:2692  uint */\n      0x00\n        /* \"contracts/demo.sol\":2711:2714  arr */\n      0x03\n        /* \"contracts/demo.sol\":2715:2718  idx */\n      dup3\n        /* \"contracts/demo.sol\":2711:2719  arr[idx] */\n      0x05\n      dup2\n      lt\n      tag_153\n      jumpi\n      tag_154\n      tag_136\n      jump\t// in\n    tag_154:\n    tag_153:\n      add\n      sload\n        /* \"contracts/demo.sol\":2704:2719  return arr[idx] */\n      swap1\n      pop\n        /* \"contracts/demo.sol\":2635:2727  function singledisplay(uint idx) public view returns(uint){... */\n      swap2\n      swap1\n      pop\n      jump\t// out\n        /* \"contracts/demo.sol\":2355:2373  uint[5] public arr */\n    tag_76:\n      0x03\n      dup2\n      0x05\n      dup2\n      lt\n      tag_156\n      jumpi\n      0x00\n      dup1\n      revert\n    tag_156:\n      add\n      0x00\n      swap2\n      pop\n      swap1\n      pop\n      sload\n      dup2\n      jump\t// out\n        /* \"contracts/demo.sol\":2241:2305  address public addr = 0xAb8483F64d9C6d1EcF9b849Ae677dD3315835cb2 */\n    tag_79:\n      0x02\n      0x01\n      swap1\n      sload\n      swap1\n      0x0100\n      exp\n      swap1\n      div\n      0xffffffffffffffffffffffffffffffffffffffff\n      and\n      dup2\n      jump\t// out\n        /* \"contracts/demo.sol\":3150:3235  function Display() public view returns(uint[] memory) {... */\n    tag_83:\n        /* \"contracts/demo.sol\":3189:3202  uint[] memory */\n      0x60\n        /* \"contracts/demo.sol\":3222:3227  array */\n      0x08\n        /* \"contracts/demo.sol\":3215:3227  return array */\n      dup1\n      sload\n      dup1\n      0x20\n      mul\n      0x20\n      add\n      mload(0x40)\n      swap1\n      dup2\n      add\n      0x40\n      mstore\n      dup1\n      swap3\n      swap2\n      swap1\n      dup2\n      dup2\n      mstore\n      0x20\n      add\n      dup3\n      dup1\n      sload\n      dup1\n      iszero\n      tag_159\n      jumpi\n      0x20\n      mul\n      dup3\n      add\n      swap2\n      swap1\n      0x00\n      mstore\n      keccak256(0x00, 0x20)\n      swap1\n    tag_160:\n      dup2\n      sload\n      dup2\n      mstore\n      0x20\n      add\n      swap1\n      0x01\n      add\n      swap1\n      dup1\n      dup4\n      gt\n      tag_160\n      jumpi\n    tag_159:\n      pop\n      pop\n      pop\n      pop\n      pop\n      swap1\n      pop\n        /* \"contracts/demo.sol\":3150:3235  function Display() public view returns(uint[] memory) {... */\n      swap1\n      jump\t// out\n        /* \"contracts/demo.sol\":1250:1502  function isZero (uint a) public pure returns(bool){... */\n    tag_88:\n        /* \"contracts/demo.sol\":1295:1299  bool */\n      0x00\n        /* \"contracts/demo.sol\":1322:1323  0 */\n      dup1\n        /* \"contracts/demo.sol\":1319:1320  a */\n      dup3\n        /* \"contracts/demo.sol\":1319:1323  a==0 */\n      eq\n        /* \"contracts/demo.sol\":1311:1366  require(a==0, \"a is not zero here , it throws a error\") */\n      tag_162\n      jumpi\n      mload(0x40)\n      0x08c379a000000000000000000000000000000000000000000000000000000000\n      dup2\n      mstore\n      0x04\n      add\n      tag_163\n      swap1\n      tag_164\n      jump\t// in\n    tag_163:\n      mload(0x40)\n      dup1\n      swap2\n      sub\n      swap1\n      revert\n    tag_162:\n        /* \"contracts/demo.sol\":1421:1425  true */\n      0x01\n        /* \"contracts/demo.sol\":1414:1425  return true */\n      swap1\n      pop\n        /* \"contracts/demo.sol\":1250:1502  function isZero (uint a) public pure returns(bool){... */\n      swap2\n      swap1\n      pop\n      jump\t// out\n        /* \"contracts/demo.sol\":1099:1115  bool public flag */\n    tag_91:\n      0x02\n      0x00\n      swap1\n      sload\n      swap1\n      0x0100\n      exp\n      swap1\n      div\n      0xff\n      and\n      dup2\n      jump\t// out\n        /* \"contracts/demo.sol\":2930:2996  function insert(uint val) public{... */\n    tag_95:\n        /* \"contracts/demo.sol\":2973:2978  array */\n      0x08\n        /* \"contracts/demo.sol\":2984:2987  val */\n      dup2\n        /* \"contracts/demo.sol\":2973:2988  array.push(val) */\n      swap1\n      dup1\n      0x01\n      dup2\n      sload\n      add\n      dup1\n      dup3\n      sstore\n      dup1\n      swap2\n      pop\n      pop\n      0x01\n      swap1\n      sub\n      swap1\n      0x00\n      mstore\n      keccak256(0x00, 0x20)\n      add\n      0x00\n      swap1\n      swap2\n      swap1\n      swap2\n      swap1\n      swap2\n      pop\n      sstore\n        /* \"contracts/demo.sol\":2930:2996  function insert(uint val) public{... */\n      pop\n      jump\t// out\n        /* \"contracts/demo.sol\":292:364  function getter() public view returns(uint){... */\n    tag_97:\n        /* \"contracts/demo.sol\":330:334  uint */\n      0x00\n        /* \"contracts/demo.sol\":353:356  num */\n      sload(0x01)\n        /* \"contracts/demo.sol\":346:356  return num */\n      swap1\n      pop\n        /* \"contracts/demo.sol\":292:364  function getter() public view returns(uint){... */\n      swap1\n      jump\t// out\n        /* \"contracts/demo.sol\":3620:3747  function fmemory() public view{... */\n    tag_100:\n        /* \"contracts/demo.sol\":3661:3680  uint[3] memory arr2 */\n      0x00\n        /* \"contracts/demo.sol\":3683:3686  brr */\n      0x09\n        /* \"contracts/demo.sol\":3661:3686  uint[3] memory arr2 = brr */\n      0x03\n      dup1\n      0x20\n      mul\n      mload(0x40)\n      swap1\n      dup2\n      add\n      0x40\n      mstore\n      dup1\n      swap3\n      swap2\n      swap1\n      dup3\n      0x03\n      dup1\n      iszero\n      tag_169\n      jumpi\n      0x20\n      mul\n      dup3\n      add\n      swap2\n    tag_170:\n      dup2\n      sload\n      dup2\n      mstore\n      0x20\n      add\n      swap1\n      0x01\n      add\n      swap1\n      dup1\n      dup4\n      gt\n      tag_170\n      jumpi\n    tag_169:\n      pop\n      pop\n      pop\n      pop\n      pop\n      swap1\n      pop\n        /* \"contracts/demo.sol\":3738:3739  9 */\n      0x09\n        /* \"contracts/demo.sol\":3728:3732  arr2 */\n      dup2\n        /* \"contracts/demo.sol\":3733:3734  2 */\n      0x02\n        /* \"contracts/demo.sol\":3728:3735  arr2[2] */\n      0x03\n      dup2\n      lt\n      tag_171\n      jumpi\n      tag_172\n      tag_136\n      jump\t// in\n    tag_172:\n    tag_171:\n      0x20\n      mul\n      add\n        /* \"contracts/demo.sol\":3728:3739  arr2[2] = 9 */\n      dup2\n      dup2\n      mstore\n      pop\n      pop\n        /* \"contracts/demo.sol\":3650:3747  {... */\n      pop\n        /* \"contracts/demo.sol\":3620:3747  function fmemory() public view{... */\n      jump\t// out\n        /* \"contracts/demo.sol\":372:794  function loop() public pure returns (uint){... */\n    tag_102:\n        /* \"contracts/demo.sol\":409:413  uint */\n      0x00\n        /* \"contracts/demo.sol\":500:510  uint count */\n      dup1\n        /* \"contracts/demo.sol\":513:514  0 */\n      0x00\n        /* \"contracts/demo.sol\":500:514  uint count = 0 */\n      swap1\n      pop\n        /* \"contracts/demo.sol\":525:533  uint sum */\n      0x00\n        /* \"contracts/demo.sol\":548:624  while(count <= 5){... */\n    tag_174:\n        /* \"contracts/demo.sol\":563:564  5 */\n      0x05\n        /* \"contracts/demo.sol\":554:559  count */\n      dup3\n        /* \"contracts/demo.sol\":554:564  count <= 5 */\n      gt\n        /* \"contracts/demo.sol\":548:624  while(count <= 5){... */\n      tag_175\n      jumpi\n        /* \"contracts/demo.sol\":585:590  count */\n      dup2\n        /* \"contracts/demo.sol\":580:590  sum+=count */\n      dup2\n      tag_176\n      swap2\n      swap1\n      tag_177\n      jump\t// in\n    tag_176:\n      swap1\n      pop\n        /* \"contracts/demo.sol\":605:612  count++ */\n      dup2\n      dup1\n      tag_178\n      swap1\n      tag_179\n      jump\t// in\n    tag_178:\n      swap3\n      pop\n      pop\n        /* \"contracts/demo.sol\":548:624  while(count <= 5){... */\n      jump(tag_174)\n    tag_175:\n        /* \"contracts/demo.sol\":640:646  uint i */\n      0x00\n        /* \"contracts/demo.sol\":636:698  for(uint i = 0 ; i <= 5; i++){... */\n    tag_180:\n        /* \"contracts/demo.sol\":658:659  5 */\n      0x05\n        /* \"contracts/demo.sol\":653:654  i */\n      dup2\n        /* \"contracts/demo.sol\":653:659  i <= 5 */\n      gt\n        /* \"contracts/demo.sol\":636:698  for(uint i = 0 ; i <= 5; i++){... */\n      tag_181\n      jumpi\n        /* \"contracts/demo.sol\":685:686  i */\n      dup1\n        /* \"contracts/demo.sol\":680:686  sum+=i */\n      dup3\n      tag_183\n      swap2\n      swap1\n      tag_177\n      jump\t// in\n    tag_183:\n      swap2\n      pop\n        /* \"contracts/demo.sol\":661:664  i++ */\n      dup1\n      dup1\n      tag_184\n      swap1\n      tag_179\n      jump\t// in\n    tag_184:\n      swap2\n      pop\n      pop\n        /* \"contracts/demo.sol\":636:698  for(uint i = 0 ; i <= 5; i++){... */\n      jump(tag_180)\n    tag_181:\n      pop\n        /* \"contracts/demo.sol\":710:764  do{... */\n    tag_185:\n        /* \"contracts/demo.sol\":732:737  count */\n      dup2\n        /* \"contracts/demo.sol\":727:737  sum+=count */\n      dup2\n      tag_188\n      swap2\n      swap1\n      tag_177\n      jump\t// in\n    tag_188:\n      swap1\n      pop\n        /* \"contracts/demo.sol\":761:762  5 */\n      0x05\n        /* \"contracts/demo.sol\":755:760  count */\n      dup3\n        /* \"contracts/demo.sol\":755:762  count<5 */\n      lt\n        /* \"contracts/demo.sol\":710:764  do{... */\n      tag_185\n      jumpi\n        /* \"contracts/demo.sol\":783:786  sum */\n      dup1\n        /* \"contracts/demo.sol\":776:786  return sum */\n      swap3\n      pop\n      pop\n      pop\n        /* \"contracts/demo.sol\":372:794  function loop() public pure returns (uint){... */\n      swap1\n      jump\t// out\n        /* \"contracts/demo.sol\":94:127  string public str = \"HELLO WORLD\" */\n    tag_105:\n      0x00\n      dup1\n      sload\n      tag_189\n      swap1\n      tag_190\n      jump\t// in\n    tag_189:\n      dup1\n      0x1f\n      add\n      0x20\n      dup1\n      swap2\n      div\n      mul\n      0x20\n      add\n      mload(0x40)\n      swap1\n      dup2\n      add\n      0x40\n      mstore\n      dup1\n      swap3\n      swap2\n      swap1\n      dup2\n      dup2\n      mstore\n      0x20\n      add\n      dup3\n      dup1\n      sload\n      tag_191\n      swap1\n      tag_190\n      jump\t// in\n    tag_191:\n      dup1\n      iszero\n      tag_192\n      jumpi\n      dup1\n      0x1f\n      lt\n      tag_193\n      jumpi\n      0x0100\n      dup1\n      dup4\n      sload\n      div\n      mul\n      dup4\n      mstore\n      swap2\n      0x20\n      add\n      swap2\n      jump(tag_192)\n    tag_193:\n      dup3\n      add\n      swap2\n      swap1\n      0x00\n      mstore\n      keccak256(0x00, 0x20)\n      swap1\n    tag_194:\n      dup2\n      sload\n      dup2\n      mstore\n      swap1\n      0x01\n      add\n      swap1\n      0x20\n      add\n      dup1\n      dup4\n      gt\n      tag_194\n      jumpi\n      dup3\n      swap1\n      sub\n      0x1f\n      and\n      dup3\n      add\n      swap2\n    tag_192:\n      pop\n      pop\n      pop\n      pop\n      pop\n      dup2\n      jump\t// out\n        /* \"contracts/demo.sol\":1528:1679  function isZeroIF (uint a) public pure returns(bool) {... */\n    tag_110:\n        /* \"contracts/demo.sol\":1575:1579  bool */\n      0x00\n        /* \"contracts/demo.sol\":1598:1599  0 */\n      dup1\n        /* \"contracts/demo.sol\":1595:1596  a */\n      dup3\n        /* \"contracts/demo.sol\":1595:1599  a==0 */\n      sub\n        /* \"contracts/demo.sol\":1592:1612  if(a==0) return true */\n      tag_196\n      jumpi\n        /* \"contracts/demo.sol\":1608:1612  true */\n      0x01\n        /* \"contracts/demo.sol\":1601:1612  return true */\n      swap1\n      pop\n      jump(tag_195)\n        /* \"contracts/demo.sol\":1592:1612  if(a==0) return true */\n    tag_196:\n        /* \"contracts/demo.sol\":1623:1671  revert(\"a is not zero here , it throws a error\") */\n      mload(0x40)\n      0x08c379a000000000000000000000000000000000000000000000000000000000\n      dup2\n      mstore\n      0x04\n      add\n      tag_197\n      swap1\n      tag_164\n      jump\t// in\n    tag_197:\n      mload(0x40)\n      dup1\n      swap2\n      sub\n      swap1\n      revert\n        /* \"contracts/demo.sol\":1528:1679  function isZeroIF (uint a) public pure returns(bool) {... */\n    tag_195:\n      swap2\n      swap1\n      pop\n      jump\t// out\n        /* \"contracts/demo.sol\":1875:1948  function f1() public isTrue pure returns(uint){... */\n    tag_113:\n        /* \"contracts/demo.sol\":1916:1920  uint */\n      0x00\n        /* \"contracts/demo.sol\":1800:1804  true */\n      0x01\n        /* \"contracts/demo.sol\":1794:1804  true==true */\n      iszero\n      iszero\n        /* \"contracts/demo.sol\":1794:1798  true */\n      0x01\n        /* \"contracts/demo.sol\":1794:1804  true==true */\n      iszero\n      iszero\n      eq\n        /* \"contracts/demo.sol\":1786:1820  require(true==true, \"ERROR THROW\") */\n      tag_199\n      jumpi\n      mload(0x40)\n      0x08c379a000000000000000000000000000000000000000000000000000000000\n      dup2\n      mstore\n      0x04\n      add\n      tag_200\n      swap1\n      tag_201\n      jump\t// in\n    tag_200:\n      mload(0x40)\n      dup1\n      swap2\n      sub\n      swap1\n      revert\n    tag_199:\n        /* \"contracts/demo.sol\":1939:1940  1 */\n      0x01\n        /* \"contracts/demo.sol\":1932:1940  return 1 */\n      swap1\n      pop\n        /* \"contracts/demo.sol\":1875:1948  function f1() public isTrue pure returns(uint){... */\n      swap1\n      jump\t// out\n        /* \"contracts/demo.sol\":3002:3060  function removeLast() public{... */\n    tag_116:\n        /* \"contracts/demo.sol\":3041:3046  array */\n      0x08\n        /* \"contracts/demo.sol\":3041:3052  array.pop() */\n      dup1\n      sload\n      dup1\n      tag_204\n      jumpi\n      tag_205\n      tag_206\n      jump\t// in\n    tag_205:\n    tag_204:\n      0x01\n      swap1\n      sub\n      dup2\n      dup2\n      swap1\n      0x00\n      mstore\n      keccak256(0x00, 0x20)\n      add\n      0x00\n      swap1\n      sstore\n      swap1\n      sstore\n        /* \"contracts/demo.sol\":3002:3060  function removeLast() public{... */\n      jump\t// out\n        /* \"contracts/demo.sol\":222:286  function setter (uint _num) public {... */\n    tag_119:\n        /* \"contracts/demo.sol\":274:278  _num */\n      dup1\n        /* \"contracts/demo.sol\":268:271  num */\n      0x01\n        /* \"contracts/demo.sol\":268:278  num = _num */\n      dup2\n      swap1\n      sstore\n      pop\n        /* \"contracts/demo.sol\":222:286  function setter (uint _num) public {... */\n      pop\n      jump\t// out\n    tag_121:\n      mload(0x40)\n      dup1\n      0xa0\n      add\n      0x40\n      mstore\n      dup1\n      0x05\n      swap1\n      0x20\n      dup3\n      mul\n      dup1\n      calldatasize\n      dup4\n      calldatacopy\n      dup1\n      dup3\n      add\n      swap2\n      pop\n      pop\n      swap1\n      pop\n      pop\n      swap1\n      jump\t// out\n        /* \"#utility.yul\":7:111   */\n    tag_209:\n        /* \"#utility.yul\":72:78   */\n      0x00\n        /* \"#utility.yul\":100:104   */\n      0x05\n        /* \"#utility.yul\":90:104   */\n      swap1\n      pop\n        /* \"#utility.yul\":7:111   */\n      swap2\n      swap1\n      pop\n      jump\t// out\n        /* \"#utility.yul\":117:260   */\n    tag_210:\n        /* \"#utility.yul\":214:225   */\n      0x00\n        /* \"#utility.yul\":251:254   */\n      dup2\n        /* \"#utility.yul\":236:254   */\n      swap1\n      pop\n        /* \"#utility.yul\":117:260   */\n      swap3\n      swap2\n      pop\n      pop\n      jump\t// out\n        /* \"#utility.yul\":266:364   */\n    tag_211:\n        /* \"#utility.yul\":331:335   */\n      0x00\n        /* \"#utility.yul\":354:357   */\n      dup2\n        /* \"#utility.yul\":346:357   */\n      swap1\n      pop\n        /* \"#utility.yul\":266:364   */\n      swap2\n      swap1\n      pop\n      jump\t// out\n        /* \"#utility.yul\":370:447   */\n    tag_212:\n        /* \"#utility.yul\":407:414   */\n      0x00\n        /* \"#utility.yul\":436:441   */\n      dup2\n        /* \"#utility.yul\":425:441   */\n      swap1\n      pop\n        /* \"#utility.yul\":370:447   */\n      swap2\n      swap1\n      pop\n      jump\t// out\n        /* \"#utility.yul\":453:561   */\n    tag_213:\n        /* \"#utility.yul\":530:554   */\n      tag_253\n        /* \"#utility.yul\":548:553   */\n      dup2\n        /* \"#utility.yul\":530:554   */\n      tag_212\n      jump\t// in\n    tag_253:\n        /* \"#utility.yul\":525:528   */\n      dup3\n        /* \"#utility.yul\":518:555   */\n      mstore\n        /* \"#utility.yul\":453:561   */\n      pop\n      pop\n      jump\t// out\n        /* \"#utility.yul\":567:746   */\n    tag_214:\n        /* \"#utility.yul\":636:646   */\n      0x00\n        /* \"#utility.yul\":657:703   */\n      tag_255\n        /* \"#utility.yul\":699:702   */\n      dup4\n        /* \"#utility.yul\":691:697   */\n      dup4\n        /* \"#utility.yul\":657:703   */\n      tag_213\n      jump\t// in\n    tag_255:\n        /* \"#utility.yul\":735:739   */\n      0x20\n        /* \"#utility.yul\":730:733   */\n      dup4\n        /* \"#utility.yul\":726:740   */\n      add\n        /* \"#utility.yul\":712:740   */\n      swap1\n      pop\n        /* \"#utility.yul\":567:746   */\n      swap3\n      swap2\n      pop\n      pop\n      jump\t// out\n        /* \"#utility.yul\":752:863   */\n    tag_215:\n        /* \"#utility.yul\":820:824   */\n      0x00\n        /* \"#utility.yul\":852:856   */\n      0x20\n        /* \"#utility.yul\":847:850   */\n      dup3\n        /* \"#utility.yul\":843:857   */\n      add\n        /* \"#utility.yul\":835:857   */\n      swap1\n      pop\n        /* \"#utility.yul\":752:863   */\n      swap2\n      swap1\n      pop\n      jump\t// out\n        /* \"#utility.yul\":901:1595   */\n    tag_216:\n        /* \"#utility.yul\":1037:1089   */\n      tag_258\n        /* \"#utility.yul\":1083:1088   */\n      dup2\n        /* \"#utility.yul\":1037:1089   */\n      tag_209\n      jump\t// in\n    tag_258:\n        /* \"#utility.yul\":1105:1189   */\n      tag_259\n        /* \"#utility.yul\":1182:1188   */\n      dup2\n        /* \"#utility.yul\":1177:1180   */\n      dup5\n        /* \"#utility.yul\":1105:1189   */\n      tag_210\n      jump\t// in\n    tag_259:\n        /* \"#utility.yul\":1098:1189   */\n      swap3\n      pop\n        /* \"#utility.yul\":1213:1267   */\n      tag_260\n        /* \"#utility.yul\":1261:1266   */\n      dup3\n        /* \"#utility.yul\":1213:1267   */\n      tag_211\n      jump\t// in\n    tag_260:\n        /* \"#utility.yul\":1290:1297   */\n      dup1\n        /* \"#utility.yul\":1321:1322   */\n      0x00\n        /* \"#utility.yul\":1306:1588   */\n    tag_261:\n        /* \"#utility.yul\":1331:1337   */\n      dup4\n        /* \"#utility.yul\":1328:1329   */\n      dup2\n        /* \"#utility.yul\":1325:1338   */\n      lt\n        /* \"#utility.yul\":1306:1588   */\n      iszero\n      tag_263\n      jumpi\n        /* \"#utility.yul\":1407:1413   */\n      dup2\n        /* \"#utility.yul\":1401:1414   */\n      mload\n        /* \"#utility.yul\":1434:1497   */\n      tag_264\n        /* \"#utility.yul\":1493:1496   */\n      dup8\n        /* \"#utility.yul\":1478:1491   */\n      dup3\n        /* \"#utility.yul\":1434:1497   */\n      tag_214\n      jump\t// in\n    tag_264:\n        /* \"#utility.yul\":1427:1497   */\n      swap7\n      pop\n        /* \"#utility.yul\":1520:1578   */\n      tag_265\n        /* \"#utility.yul\":1571:1577   */\n      dup4\n        /* \"#utility.yul\":1520:1578   */\n      tag_215\n      jump\t// in\n    tag_265:\n        /* \"#utility.yul\":1510:1578   */\n      swap3\n      pop\n        /* \"#utility.yul\":1366:1588   */\n      pop\n        /* \"#utility.yul\":1353:1354   */\n      0x01\n        /* \"#utility.yul\":1350:1351   */\n      dup2\n        /* \"#utility.yul\":1346:1355   */\n      add\n        /* \"#utility.yul\":1341:1355   */\n      swap1\n      pop\n        /* \"#utility.yul\":1306:1588   */\n      jump(tag_261)\n    tag_263:\n        /* \"#utility.yul\":1310:1324   */\n      pop\n        /* \"#utility.yul\":1013:1595   */\n      pop\n      pop\n      pop\n        /* \"#utility.yul\":901:1595   */\n      pop\n      pop\n      jump\t// out\n        /* \"#utility.yul\":1601:1916   */\n    tag_35:\n        /* \"#utility.yul\":1740:1744   */\n      0x00\n        /* \"#utility.yul\":1778:1781   */\n      0xa0\n        /* \"#utility.yul\":1767:1776   */\n      dup3\n        /* \"#utility.yul\":1763:1782   */\n      add\n        /* \"#utility.yul\":1755:1782   */\n      swap1\n      pop\n        /* \"#utility.yul\":1792:1909   */\n      tag_267\n        /* \"#utility.yul\":1906:1907   */\n      0x00\n        /* \"#utility.yul\":1895:1904   */\n      dup4\n        /* \"#utility.yul\":1891:1908   */\n      add\n        /* \"#utility.yul\":1882:1888   */\n      dup5\n        /* \"#utility.yul\":1792:1909   */\n      tag_216\n      jump\t// in\n    tag_267:\n        /* \"#utility.yul\":1601:1916   */\n      swap3\n      swap2\n      pop\n      pop\n      jump\t// out\n        /* \"#utility.yul\":2003:2120   */\n    tag_218:\n        /* \"#utility.yul\":2112:2113   */\n      0x00\n        /* \"#utility.yul\":2109:2110   */\n      dup1\n        /* \"#utility.yul\":2102:2114   */\n      revert\n        /* \"#utility.yul\":2249:2371   */\n    tag_220:\n        /* \"#utility.yul\":2322:2346   */\n      tag_272\n        /* \"#utility.yul\":2340:2345   */\n      dup2\n        /* \"#utility.yul\":2322:2346   */\n      tag_212\n      jump\t// in\n    tag_272:\n        /* \"#utility.yul\":2315:2320   */\n      dup2\n        /* \"#utility.yul\":2312:2347   */\n      eq\n        /* \"#utility.yul\":2302:2365   */\n      tag_273\n      jumpi\n        /* \"#utility.yul\":2361:2362   */\n      0x00\n        /* \"#utility.yul\":2358:2359   */\n      dup1\n        /* \"#utility.yul\":2351:2363   */\n      revert\n        /* \"#utility.yul\":2302:2365   */\n    tag_273:\n        /* \"#utility.yul\":2249:2371   */\n      pop\n      jump\t// out\n        /* \"#utility.yul\":2377:2516   */\n    tag_221:\n        /* \"#utility.yul\":2423:2428   */\n      0x00\n        /* \"#utility.yul\":2461:2467   */\n      dup2\n        /* \"#utility.yul\":2448:2468   */\n      calldataload\n        /* \"#utility.yul\":2439:2468   */\n      swap1\n      pop\n        /* \"#utility.yul\":2477:2510   */\n      tag_275\n        /* \"#utility.yul\":2504:2509   */\n      dup2\n        /* \"#utility.yul\":2477:2510   */\n      tag_220\n      jump\t// in\n    tag_275:\n        /* \"#utility.yul\":2377:2516   */\n      swap3\n      swap2\n      pop\n      pop\n      jump\t// out\n        /* \"#utility.yul\":2522:2851   */\n    tag_38:\n        /* \"#utility.yul\":2581:2587   */\n      0x00\n        /* \"#utility.yul\":2630:2632   */\n      0x20\n        /* \"#utility.yul\":2618:2627   */\n      dup3\n        /* \"#utility.yul\":2609:2616   */\n      dup5\n        /* \"#utility.yul\":2605:2628   */\n      sub\n        /* \"#utility.yul\":2601:2633   */\n      slt\n        /* \"#utility.yul\":2598:2717   */\n      iszero\n      tag_277\n      jumpi\n        /* \"#utility.yul\":2636:2715   */\n      tag_278\n      tag_218\n      jump\t// in\n    tag_278:\n        /* \"#utility.yul\":2598:2717   */\n    tag_277:\n        /* \"#utility.yul\":2756:2757   */\n      0x00\n        /* \"#utility.yul\":2781:2834   */\n      tag_279\n        /* \"#utility.yul\":2826:2833   */\n      dup5\n        /* \"#utility.yul\":2817:2823   */\n      dup3\n        /* \"#utility.yul\":2806:2815   */\n      dup6\n        /* \"#utility.yul\":2802:2824   */\n      add\n        /* \"#utility.yul\":2781:2834   */\n      tag_221\n      jump\t// in\n    tag_279:\n        /* \"#utility.yul\":2771:2834   */\n      swap2\n      pop\n        /* \"#utility.yul\":2727:2844   */\n      pop\n        /* \"#utility.yul\":2522:2851   */\n      swap3\n      swap2\n      pop\n      pop\n      jump\t// out\n        /* \"#utility.yul\":2857:2947   */\n    tag_222:\n        /* \"#utility.yul\":2891:2898   */\n      0x00\n        /* \"#utility.yul\":2934:2939   */\n      dup2\n        /* \"#utility.yul\":2927:2940   */\n      iszero\n        /* \"#utility.yul\":2920:2941   */\n      iszero\n        /* \"#utility.yul\":2909:2941   */\n      swap1\n      pop\n        /* \"#utility.yul\":2857:2947   */\n      swap2\n      swap1\n      pop\n      jump\t// out\n        /* \"#utility.yul\":2953:3062   */\n    tag_223:\n        /* \"#utility.yul\":3034:3055   */\n      tag_282\n        /* \"#utility.yul\":3049:3054   */\n      dup2\n        /* \"#utility.yul\":3034:3055   */\n      tag_222\n      jump\t// in\n    tag_282:\n        /* \"#utility.yul\":3029:3032   */\n      dup3\n        /* \"#utility.yul\":3022:3056   */\n      mstore\n        /* \"#utility.yul\":2953:3062   */\n      pop\n      pop\n      jump\t// out\n        /* \"#utility.yul\":3068:3278   */\n    tag_41:\n        /* \"#utility.yul\":3155:3159   */\n      0x00\n        /* \"#utility.yul\":3193:3195   */\n      0x20\n        /* \"#utility.yul\":3182:3191   */\n      dup3\n        /* \"#utility.yul\":3178:3196   */\n      add\n        /* \"#utility.yul\":3170:3196   */\n      swap1\n      pop\n        /* \"#utility.yul\":3206:3271   */\n      tag_284\n        /* \"#utility.yul\":3268:3269   */\n      0x00\n        /* \"#utility.yul\":3257:3266   */\n      dup4\n        /* \"#utility.yul\":3253:3270   */\n      add\n        /* \"#utility.yul\":3244:3250   */\n      dup5\n        /* \"#utility.yul\":3206:3271   */\n      tag_223\n      jump\t// in\n    tag_284:\n        /* \"#utility.yul\":3068:3278   */\n      swap3\n      swap2\n      pop\n      pop\n      jump\t// out\n        /* \"#utility.yul\":3284:3758   */\n    tag_47:\n        /* \"#utility.yul\":3352:3358   */\n      0x00\n        /* \"#utility.yul\":3360:3366   */\n      dup1\n        /* \"#utility.yul\":3409:3411   */\n      0x40\n        /* \"#utility.yul\":3397:3406   */\n      dup4\n        /* \"#utility.yul\":3388:3395   */\n      dup6\n        /* \"#utility.yul\":3384:3407   */\n      sub\n        /* \"#utility.yul\":3380:3412   */\n      slt\n        /* \"#utility.yul\":3377:3496   */\n      iszero\n      tag_286\n      jumpi\n        /* \"#utility.yul\":3415:3494   */\n      tag_287\n      tag_218\n      jump\t// in\n    tag_287:\n        /* \"#utility.yul\":3377:3496   */\n    tag_286:\n        /* \"#utility.yul\":3535:3536   */\n      0x00\n        /* \"#utility.yul\":3560:3613   */\n      tag_288\n        /* \"#utility.yul\":3605:3612   */\n      dup6\n        /* \"#utility.yul\":3596:3602   */\n      dup3\n        /* \"#utility.yul\":3585:3594   */\n      dup7\n        /* \"#utility.yul\":3581:3603   */\n      add\n        /* \"#utility.yul\":3560:3613   */\n      tag_221\n      jump\t// in\n    tag_288:\n        /* \"#utility.yul\":3550:3613   */\n      swap3\n      pop\n        /* \"#utility.yul\":3506:3623   */\n      pop\n        /* \"#utility.yul\":3662:3664   */\n      0x20\n        /* \"#utility.yul\":3688:3741   */\n      tag_289\n        /* \"#utility.yul\":3733:3740   */\n      dup6\n        /* \"#utility.yul\":3724:3730   */\n      dup3\n        /* \"#utility.yul\":3713:3722   */\n      dup7\n        /* \"#utility.yul\":3709:3731   */\n      add\n        /* \"#utility.yul\":3688:3741   */\n      tag_221\n      jump\t// in\n    tag_289:\n        /* \"#utility.yul\":3678:3741   */\n      swap2\n      pop\n        /* \"#utility.yul\":3633:3751   */\n      pop\n        /* \"#utility.yul\":3284:3758   */\n      swap3\n      pop\n      swap3\n      swap1\n      pop\n      jump\t// out\n        /* \"#utility.yul\":3764:3882   */\n    tag_224:\n        /* \"#utility.yul\":3851:3875   */\n      tag_291\n        /* \"#utility.yul\":3869:3874   */\n      dup2\n        /* \"#utility.yul\":3851:3875   */\n      tag_212\n      jump\t// in\n    tag_291:\n        /* \"#utility.yul\":3846:3849   */\n      dup3\n        /* \"#utility.yul\":3839:3876   */\n      mstore\n        /* \"#utility.yul\":3764:3882   */\n      pop\n      pop\n      jump\t// out\n        /* \"#utility.yul\":3888:4110   */\n    tag_53:\n        /* \"#utility.yul\":3981:3985   */\n      0x00\n        /* \"#utility.yul\":4019:4021   */\n      0x20\n        /* \"#utility.yul\":4008:4017   */\n      dup3\n        /* \"#utility.yul\":4004:4022   */\n      add\n        /* \"#utility.yul\":3996:4022   */\n      swap1\n      pop\n        /* \"#utility.yul\":4032:4103   */\n      tag_293\n        /* \"#utility.yul\":4100:4101   */\n      0x00\n        /* \"#utility.yul\":4089:4098   */\n      dup4\n        /* \"#utility.yul\":4085:4102   */\n      add\n        /* \"#utility.yul\":4076:4082   */\n      dup5\n        /* \"#utility.yul\":4032:4103   */\n      tag_224\n      jump\t// in\n    tag_293:\n        /* \"#utility.yul\":3888:4110   */\n      swap3\n      swap2\n      pop\n      pop\n      jump\t// out\n        /* \"#utility.yul\":4116:4242   */\n    tag_225:\n        /* \"#utility.yul\":4153:4160   */\n      0x00\n        /* \"#utility.yul\":4193:4235   */\n      0xffffffffffffffffffffffffffffffffffffffff\n        /* \"#utility.yul\":4186:4191   */\n      dup3\n        /* \"#utility.yul\":4182:4236   */\n      and\n        /* \"#utility.yul\":4171:4236   */\n      swap1\n      pop\n        /* \"#utility.yul\":4116:4242   */\n      swap2\n      swap1\n      pop\n      jump\t// out\n        /* \"#utility.yul\":4248:4344   */\n    tag_226:\n        /* \"#utility.yul\":4285:4292   */\n      0x00\n        /* \"#utility.yul\":4314:4338   */\n      tag_296\n        /* \"#utility.yul\":4332:4337   */\n      dup3\n        /* \"#utility.yul\":4314:4338   */\n      tag_225\n      jump\t// in\n    tag_296:\n        /* \"#utility.yul\":4303:4338   */\n      swap1\n      pop\n        /* \"#utility.yul\":4248:4344   */\n      swap2\n      swap1\n      pop\n      jump\t// out\n        /* \"#utility.yul\":4350:4468   */\n    tag_227:\n        /* \"#utility.yul\":4437:4461   */\n      tag_298\n        /* \"#utility.yul\":4455:4460   */\n      dup2\n        /* \"#utility.yul\":4437:4461   */\n      tag_226\n      jump\t// in\n    tag_298:\n        /* \"#utility.yul\":4432:4435   */\n      dup3\n        /* \"#utility.yul\":4425:4462   */\n      mstore\n        /* \"#utility.yul\":4350:4468   */\n      pop\n      pop\n      jump\t// out\n        /* \"#utility.yul\":4474:4696   */\n    tag_81:\n        /* \"#utility.yul\":4567:4571   */\n      0x00\n        /* \"#utility.yul\":4605:4607   */\n      0x20\n        /* \"#utility.yul\":4594:4603   */\n      dup3\n        /* \"#utility.yul\":4590:4608   */\n      add\n        /* \"#utility.yul\":4582:4608   */\n      swap1\n      pop\n        /* \"#utility.yul\":4618:4689   */\n      tag_300\n        /* \"#utility.yul\":4686:4687   */\n      0x00\n        /* \"#utility.yul\":4675:4684   */\n      dup4\n        /* \"#utility.yul\":4671:4688   */\n      add\n        /* \"#utility.yul\":4662:4668   */\n      dup5\n        /* \"#utility.yul\":4618:4689   */\n      tag_227\n      jump\t// in\n    tag_300:\n        /* \"#utility.yul\":4474:4696   */\n      swap3\n      swap2\n      pop\n      pop\n      jump\t// out\n        /* \"#utility.yul\":4702:4816   */\n    tag_228:\n        /* \"#utility.yul\":4769:4775   */\n      0x00\n        /* \"#utility.yul\":4803:4808   */\n      dup2\n        /* \"#utility.yul\":4797:4809   */\n      mload\n        /* \"#utility.yul\":4787:4809   */\n      swap1\n      pop\n        /* \"#utility.yul\":4702:4816   */\n      swap2\n      swap1\n      pop\n      jump\t// out\n        /* \"#utility.yul\":4822:5006   */\n    tag_229:\n        /* \"#utility.yul\":4921:4932   */\n      0x00\n        /* \"#utility.yul\":4955:4961   */\n      dup3\n        /* \"#utility.yul\":4950:4953   */\n      dup3\n        /* \"#utility.yul\":4943:4962   */\n      mstore\n        /* \"#utility.yul\":4995:4999   */\n      0x20\n        /* \"#utility.yul\":4990:4993   */\n      dup3\n        /* \"#utility.yul\":4986:5000   */\n      add\n        /* \"#utility.yul\":4971:5000   */\n      swap1\n      pop\n        /* \"#utility.yul\":4822:5006   */\n      swap3\n      swap2\n      pop\n      pop\n      jump\t// out\n        /* \"#utility.yul\":5012:5144   */\n    tag_230:\n        /* \"#utility.yul\":5079:5083   */\n      0x00\n        /* \"#utility.yul\":5102:5105   */\n      dup2\n        /* \"#utility.yul\":5094:5105   */\n      swap1\n      pop\n        /* \"#utility.yul\":5132:5136   */\n      0x20\n        /* \"#utility.yul\":5127:5130   */\n      dup3\n        /* \"#utility.yul\":5123:5137   */\n      add\n        /* \"#utility.yul\":5115:5137   */\n      swap1\n      pop\n        /* \"#utility.yul\":5012:5144   */\n      swap2\n      swap1\n      pop\n      jump\t// out\n        /* \"#utility.yul\":5150:5263   */\n    tag_231:\n        /* \"#utility.yul\":5220:5224   */\n      0x00\n        /* \"#utility.yul\":5252:5256   */\n      0x20\n        /* \"#utility.yul\":5247:5250   */\n      dup3\n        /* \"#utility.yul\":5243:5257   */\n      add\n        /* \"#utility.yul\":5235:5257   */\n      swap1\n      pop\n        /* \"#utility.yul\":5150:5263   */\n      swap2\n      swap1\n      pop\n      jump\t// out\n        /* \"#utility.yul\":5299:6031   */\n    tag_232:\n        /* \"#utility.yul\":5418:5421   */\n      0x00\n        /* \"#utility.yul\":5447:5501   */\n      tag_306\n        /* \"#utility.yul\":5495:5500   */\n      dup3\n        /* \"#utility.yul\":5447:5501   */\n      tag_228\n      jump\t// in\n    tag_306:\n        /* \"#utility.yul\":5517:5603   */\n      tag_307\n        /* \"#utility.yul\":5596:5602   */\n      dup2\n        /* \"#utility.yul\":5591:5594   */\n      dup6\n        /* \"#utility.yul\":5517:5603   */\n      tag_229\n      jump\t// in\n    tag_307:\n        /* \"#utility.yul\":5510:5603   */\n      swap4\n      pop\n        /* \"#utility.yul\":5627:5683   */\n      tag_308\n        /* \"#utility.yul\":5677:5682   */\n      dup4\n        /* \"#utility.yul\":5627:5683   */\n      tag_230\n      jump\t// in\n    tag_308:\n        /* \"#utility.yul\":5706:5713   */\n      dup1\n        /* \"#utility.yul\":5737:5738   */\n      0x00\n        /* \"#utility.yul\":5722:6006   */\n    tag_309:\n        /* \"#utility.yul\":5747:5753   */\n      dup4\n        /* \"#utility.yul\":5744:5745   */\n      dup2\n        /* \"#utility.yul\":5741:5754   */\n      lt\n        /* \"#utility.yul\":5722:6006   */\n      iszero\n      tag_311\n      jumpi\n        /* \"#utility.yul\":5823:5829   */\n      dup2\n        /* \"#utility.yul\":5817:5830   */\n      mload\n        /* \"#utility.yul\":5850:5913   */\n      tag_312\n        /* \"#utility.yul\":5909:5912   */\n      dup9\n        /* \"#utility.yul\":5894:5907   */\n      dup3\n        /* \"#utility.yul\":5850:5913   */\n      tag_214\n      jump\t// in\n    tag_312:\n        /* \"#utility.yul\":5843:5913   */\n      swap8\n      pop\n        /* \"#utility.yul\":5936:5996   */\n      tag_313\n        /* \"#utility.yul\":5989:5995   */\n      dup4\n        /* \"#utility.yul\":5936:5996   */\n      tag_231\n      jump\t// in\n    tag_313:\n        /* \"#utility.yul\":5926:5996   */\n      swap3\n      pop\n        /* \"#utility.yul\":5782:6006   */\n      pop\n        /* \"#utility.yul\":5769:5770   */\n      0x01\n        /* \"#utility.yul\":5766:5767   */\n      dup2\n        /* \"#utility.yul\":5762:5771   */\n      add\n        /* \"#utility.yul\":5757:5771   */\n      swap1\n      pop\n        /* \"#utility.yul\":5722:6006   */\n      jump(tag_309)\n    tag_311:\n        /* \"#utility.yul\":5726:5740   */\n      pop\n        /* \"#utility.yul\":6022:6025   */\n      dup6\n        /* \"#utility.yul\":6015:6025   */\n      swap4\n      pop\n        /* \"#utility.yul\":5423:6031   */\n      pop\n      pop\n      pop\n        /* \"#utility.yul\":5299:6031   */\n      swap3\n      swap2\n      pop\n      pop\n      jump\t// out\n        /* \"#utility.yul\":6037:6410   */\n    tag_85:\n        /* \"#utility.yul\":6180:6184   */\n      0x00\n        /* \"#utility.yul\":6218:6220   */\n      0x20\n        /* \"#utility.yul\":6207:6216   */\n      dup3\n        /* \"#utility.yul\":6203:6221   */\n      add\n        /* \"#utility.yul\":6195:6221   */\n      swap1\n      pop\n        /* \"#utility.yul\":6267:6276   */\n      dup2\n        /* \"#utility.yul\":6261:6265   */\n      dup2\n        /* \"#utility.yul\":6257:6277   */\n      sub\n        /* \"#utility.yul\":6253:6254   */\n      0x00\n        /* \"#utility.yul\":6242:6251   */\n      dup4\n        /* \"#utility.yul\":6238:6255   */\n      add\n        /* \"#utility.yul\":6231:6278   */\n      mstore\n        /* \"#utility.yul\":6295:6403   */\n      tag_315\n        /* \"#utility.yul\":6398:6402   */\n      dup2\n        /* \"#utility.yul\":6389:6395   */\n      dup5\n        /* \"#utility.yul\":6295:6403   */\n      tag_232\n      jump\t// in\n    tag_315:\n        /* \"#utility.yul\":6287:6403   */\n      swap1\n      pop\n        /* \"#utility.yul\":6037:6410   */\n      swap3\n      swap2\n      pop\n      pop\n      jump\t// out\n        /* \"#utility.yul\":6416:6515   */\n    tag_233:\n        /* \"#utility.yul\":6468:6474   */\n      0x00\n        /* \"#utility.yul\":6502:6507   */\n      dup2\n        /* \"#utility.yul\":6496:6508   */\n      mload\n        /* \"#utility.yul\":6486:6508   */\n      swap1\n      pop\n        /* \"#utility.yul\":6416:6515   */\n      swap2\n      swap1\n      pop\n      jump\t// out\n        /* \"#utility.yul\":6521:6690   */\n    tag_234:\n        /* \"#utility.yul\":6605:6616   */\n      0x00\n        /* \"#utility.yul\":6639:6645   */\n      dup3\n        /* \"#utility.yul\":6634:6637   */\n      dup3\n        /* \"#utility.yul\":6627:6646   */\n      mstore\n        /* \"#utility.yul\":6679:6683   */\n      0x20\n        /* \"#utility.yul\":6674:6677   */\n      dup3\n        /* \"#utility.yul\":6670:6684   */\n      add\n        /* \"#utility.yul\":6655:6684   */\n      swap1\n      pop\n        /* \"#utility.yul\":6521:6690   */\n      swap3\n      swap2\n      pop\n      pop\n      jump\t// out\n        /* \"#utility.yul\":6696:6835   */\n    tag_235:\n        /* \"#utility.yul\":6785:6791   */\n      dup3\n        /* \"#utility.yul\":6780:6783   */\n      dup2\n        /* \"#utility.yul\":6775:6778   */\n      dup4\n        /* \"#utility.yul\":6769:6792   */\n      mcopy\n        /* \"#utility.yul\":6826:6827   */\n      0x00\n        /* \"#utility.yul\":6817:6823   */\n      dup4\n        /* \"#utility.yul\":6812:6815   */\n      dup4\n        /* \"#utility.yul\":6808:6824   */\n      add\n        /* \"#utility.yul\":6801:6828   */\n      mstore\n        /* \"#utility.yul\":6696:6835   */\n      pop\n      pop\n      pop\n      jump\t// out\n        /* \"#utility.yul\":6841:6943   */\n    tag_236:\n        /* \"#utility.yul\":6882:6888   */\n      0x00\n        /* \"#utility.yul\":6933:6935   */\n      0x1f\n        /* \"#utility.yul\":6929:6936   */\n      not\n        /* \"#utility.yul\":6924:6926   */\n      0x1f\n        /* \"#utility.yul\":6917:6922   */\n      dup4\n        /* \"#utility.yul\":6913:6927   */\n      add\n        /* \"#utility.yul\":6909:6937   */\n      and\n        /* \"#utility.yul\":6899:6937   */\n      swap1\n      pop\n        /* \"#utility.yul\":6841:6943   */\n      swap2\n      swap1\n      pop\n      jump\t// out\n        /* \"#utility.yul\":6949:7326   */\n    tag_237:\n        /* \"#utility.yul\":7037:7040   */\n      0x00\n        /* \"#utility.yul\":7065:7104   */\n      tag_321\n        /* \"#utility.yul\":7098:7103   */\n      dup3\n        /* \"#utility.yul\":7065:7104   */\n      tag_233\n      jump\t// in\n    tag_321:\n        /* \"#utility.yul\":7120:7191   */\n      tag_322\n        /* \"#utility.yul\":7184:7190   */\n      dup2\n        /* \"#utility.yul\":7179:7182   */\n      dup6\n        /* \"#utility.yul\":7120:7191   */\n      tag_234\n      jump\t// in\n    tag_322:\n        /* \"#utility.yul\":7113:7191   */\n      swap4\n      pop\n        /* \"#utility.yul\":7200:7265   */\n      tag_323\n        /* \"#utility.yul\":7258:7264   */\n      dup2\n        /* \"#utility.yul\":7253:7256   */\n      dup6\n        /* \"#utility.yul\":7246:7250   */\n      0x20\n        /* \"#utility.yul\":7239:7244   */\n      dup7\n        /* \"#utility.yul\":7235:7251   */\n      add\n        /* \"#utility.yul\":7200:7265   */\n      tag_235\n      jump\t// in\n    tag_323:\n        /* \"#utility.yul\":7290:7319   */\n      tag_324\n        /* \"#utility.yul\":7312:7318   */\n      dup2\n        /* \"#utility.yul\":7290:7319   */\n      tag_236\n      jump\t// in\n    tag_324:\n        /* \"#utility.yul\":7285:7288   */\n      dup5\n        /* \"#utility.yul\":7281:7320   */\n      add\n        /* \"#utility.yul\":7274:7320   */\n      swap2\n      pop\n        /* \"#utility.yul\":7041:7326   */\n      pop\n        /* \"#utility.yul\":6949:7326   */\n      swap3\n      swap2\n      pop\n      pop\n      jump\t// out\n        /* \"#utility.yul\":7332:7645   */\n    tag_107:\n        /* \"#utility.yul\":7445:7449   */\n      0x00\n        /* \"#utility.yul\":7483:7485   */\n      0x20\n        /* \"#utility.yul\":7472:7481   */\n      dup3\n        /* \"#utility.yul\":7468:7486   */\n      add\n        /* \"#utility.yul\":7460:7486   */\n      swap1\n      pop\n        /* \"#utility.yul\":7532:7541   */\n      dup2\n        /* \"#utility.yul\":7526:7530   */\n      dup2\n        /* \"#utility.yul\":7522:7542   */\n      sub\n        /* \"#utility.yul\":7518:7519   */\n      0x00\n        /* \"#utility.yul\":7507:7516   */\n      dup4\n        /* \"#utility.yul\":7503:7520   */\n      add\n        /* \"#utility.yul\":7496:7543   */\n      mstore\n        /* \"#utility.yul\":7560:7638   */\n      tag_326\n        /* \"#utility.yul\":7633:7637   */\n      dup2\n        /* \"#utility.yul\":7624:7630   */\n      dup5\n        /* \"#utility.yul\":7560:7638   */\n      tag_237\n      jump\t// in\n    tag_326:\n        /* \"#utility.yul\":7552:7638   */\n      swap1\n      pop\n        /* \"#utility.yul\":7332:7645   */\n      swap3\n      swap2\n      pop\n      pop\n      jump\t// out\n        /* \"#utility.yul\":7651:7831   */\n    tag_238:\n        /* \"#utility.yul\":7699:7776   */\n      0x4e487b7100000000000000000000000000000000000000000000000000000000\n        /* \"#utility.yul\":7696:7697   */\n      0x00\n        /* \"#utility.yul\":7689:7777   */\n      mstore\n        /* \"#utility.yul\":7796:7800   */\n      0x12\n        /* \"#utility.yul\":7793:7794   */\n      0x04\n        /* \"#utility.yul\":7786:7801   */\n      mstore\n        /* \"#utility.yul\":7820:7824   */\n      0x24\n        /* \"#utility.yul\":7817:7818   */\n      0x00\n        /* \"#utility.yul\":7810:7825   */\n      revert\n        /* \"#utility.yul\":7837:8013   */\n    tag_127:\n        /* \"#utility.yul\":7869:7870   */\n      0x00\n        /* \"#utility.yul\":7886:7906   */\n      tag_329\n        /* \"#utility.yul\":7904:7905   */\n      dup3\n        /* \"#utility.yul\":7886:7906   */\n      tag_212\n      jump\t// in\n    tag_329:\n        /* \"#utility.yul\":7881:7906   */\n      swap2\n      pop\n        /* \"#utility.yul\":7920:7940   */\n      tag_330\n        /* \"#utility.yul\":7938:7939   */\n      dup4\n        /* \"#utility.yul\":7920:7940   */\n      tag_212\n      jump\t// in\n    tag_330:\n        /* \"#utility.yul\":7915:7940   */\n      swap3\n      pop\n        /* \"#utility.yul\":7959:7960   */\n      dup3\n        /* \"#utility.yul\":7949:7984   */\n      tag_331\n      jumpi\n        /* \"#utility.yul\":7964:7982   */\n      tag_332\n      tag_238\n      jump\t// in\n    tag_332:\n        /* \"#utility.yul\":7949:7984   */\n    tag_331:\n        /* \"#utility.yul\":8005:8006   */\n      dup3\n        /* \"#utility.yul\":8002:8003   */\n      dup3\n        /* \"#utility.yul\":7998:8007   */\n      mod\n        /* \"#utility.yul\":7993:8007   */\n      swap1\n      pop\n        /* \"#utility.yul\":7837:8013   */\n      swap3\n      swap2\n      pop\n      pop\n      jump\t// out\n        /* \"#utility.yul\":8019:8189   */\n    tag_239:\n        /* \"#utility.yul\":8159:8181   */\n      0x5468726f77206572726f72206e6f74206576656e000000000000000000000000\n        /* \"#utility.yul\":8155:8156   */\n      0x00\n        /* \"#utility.yul\":8147:8153   */\n      dup3\n        /* \"#utility.yul\":8143:8157   */\n      add\n        /* \"#utility.yul\":8136:8182   */\n      mstore\n        /* \"#utility.yul\":8019:8189   */\n      pop\n      jump\t// out\n        /* \"#utility.yul\":8195:8561   */\n    tag_240:\n        /* \"#utility.yul\":8337:8340   */\n      0x00\n        /* \"#utility.yul\":8358:8425   */\n      tag_335\n        /* \"#utility.yul\":8422:8424   */\n      0x14\n        /* \"#utility.yul\":8417:8420   */\n      dup4\n        /* \"#utility.yul\":8358:8425   */\n      tag_234\n      jump\t// in\n    tag_335:\n        /* \"#utility.yul\":8351:8425   */\n      swap2\n      pop\n        /* \"#utility.yul\":8434:8527   */\n      tag_336\n        /* \"#utility.yul\":8523:8526   */\n      dup3\n        /* \"#utility.yul\":8434:8527   */\n      tag_239\n      jump\t// in\n    tag_336:\n        /* \"#utility.yul\":8552:8554   */\n      0x20\n        /* \"#utility.yul\":8547:8550   */\n      dup3\n        /* \"#utility.yul\":8543:8555   */\n      add\n        /* \"#utility.yul\":8536:8555   */\n      swap1\n      pop\n        /* \"#utility.yul\":8195:8561   */\n      swap2\n      swap1\n      pop\n      jump\t// out\n        /* \"#utility.yul\":8567:8986   */\n    tag_130:\n        /* \"#utility.yul\":8733:8737   */\n      0x00\n        /* \"#utility.yul\":8771:8773   */\n      0x20\n        /* \"#utility.yul\":8760:8769   */\n      dup3\n        /* \"#utility.yul\":8756:8774   */\n      add\n        /* \"#utility.yul\":8748:8774   */\n      swap1\n      pop\n        /* \"#utility.yul\":8820:8829   */\n      dup2\n        /* \"#utility.yul\":8814:8818   */\n      dup2\n        /* \"#utility.yul\":8810:8830   */\n      sub\n        /* \"#utility.yul\":8806:8807   */\n      0x00\n        /* \"#utility.yul\":8795:8804   */\n      dup4\n        /* \"#utility.yul\":8791:8808   */\n      add\n        /* \"#utility.yul\":8784:8831   */\n      mstore\n        /* \"#utility.yul\":8848:8979   */\n      tag_338\n        /* \"#utility.yul\":8974:8978   */\n      dup2\n        /* \"#utility.yul\":8848:8979   */\n      tag_240\n      jump\t// in\n    tag_338:\n        /* \"#utility.yul\":8840:8979   */\n      swap1\n      pop\n        /* \"#utility.yul\":8567:8986   */\n      swap2\n      swap1\n      pop\n      jump\t// out\n        /* \"#utility.yul\":8992:9172   */\n    tag_136:\n        /* \"#utility.yul\":9040:9117   */\n      0x4e487b7100000000000000000000000000000000000000000000000000000000\n        /* \"#utility.yul\":9037:9038   */\n      0x00\n        /* \"#utility.yul\":9030:9118   */\n      mstore\n        /* \"#utility.yul\":9137:9141   */\n      0x32\n        /* \"#utility.yul\":9134:9135   */\n      0x04\n        /* \"#utility.yul\":9127:9142   */\n      mstore\n        /* \"#utility.yul\":9161:9165   */\n      0x24\n        /* \"#utility.yul\":9158:9159   */\n      0x00\n        /* \"#utility.yul\":9151:9166   */\n      revert\n        /* \"#utility.yul\":9178:9403   */\n    tag_241:\n        /* \"#utility.yul\":9318:9352   */\n      0x61206973206e6f74207a65726f2068657265202c206974207468726f77732061\n        /* \"#utility.yul\":9314:9315   */\n      0x00\n        /* \"#utility.yul\":9306:9312   */\n      dup3\n        /* \"#utility.yul\":9302:9316   */\n      add\n        /* \"#utility.yul\":9295:9353   */\n      mstore\n        /* \"#utility.yul\":9387:9395   */\n      0x206572726f720000000000000000000000000000000000000000000000000000\n        /* \"#utility.yul\":9382:9384   */\n      0x20\n        /* \"#utility.yul\":9374:9380   */\n      dup3\n        /* \"#utility.yul\":9370:9385   */\n      add\n        /* \"#utility.yul\":9363:9396   */\n      mstore\n        /* \"#utility.yul\":9178:9403   */\n      pop\n      jump\t// out\n        /* \"#utility.yul\":9409:9775   */\n    tag_242:\n        /* \"#utility.yul\":9551:9554   */\n      0x00\n        /* \"#utility.yul\":9572:9639   */\n      tag_342\n        /* \"#utility.yul\":9636:9638   */\n      0x26\n        /* \"#utility.yul\":9631:9634   */\n      dup4\n        /* \"#utility.yul\":9572:9639   */\n      tag_234\n      jump\t// in\n    tag_342:\n        /* \"#utility.yul\":9565:9639   */\n      swap2\n      pop\n        /* \"#utility.yul\":9648:9741   */\n      tag_343\n        /* \"#utility.yul\":9737:9740   */\n      dup3\n        /* \"#utility.yul\":9648:9741   */\n      tag_241\n      jump\t// in\n    tag_343:\n        /* \"#utility.yul\":9766:9768   */\n      0x40\n        /* \"#utility.yul\":9761:9764   */\n      dup3\n        /* \"#utility.yul\":9757:9769   */\n      add\n        /* \"#utility.yul\":9750:9769   */\n      swap1\n      pop\n        /* \"#utility.yul\":9409:9775   */\n      swap2\n      swap1\n      pop\n      jump\t// out\n        /* \"#utility.yul\":9781:10200   */\n    tag_164:\n        /* \"#utility.yul\":9947:9951   */\n      0x00\n        /* \"#utility.yul\":9985:9987   */\n      0x20\n        /* \"#utility.yul\":9974:9983   */\n      dup3\n        /* \"#utility.yul\":9970:9988   */\n      add\n        /* \"#utility.yul\":9962:9988   */\n      swap1\n      pop\n        /* \"#utility.yul\":10034:10043   */\n      dup2\n        /* \"#utility.yul\":10028:10032   */\n      dup2\n        /* \"#utility.yul\":10024:10044   */\n      sub\n        /* \"#utility.yul\":10020:10021   */\n      0x00\n        /* \"#utility.yul\":10009:10018   */\n      dup4\n        /* \"#utility.yul\":10005:10022   */\n      add\n        /* \"#utility.yul\":9998:10045   */\n      mstore\n        /* \"#utility.yul\":10062:10193   */\n      tag_345\n        /* \"#utility.yul\":10188:10192   */\n      dup2\n        /* \"#utility.yul\":10062:10193   */\n      tag_242\n      jump\t// in\n    tag_345:\n        /* \"#utility.yul\":10054:10193   */\n      swap1\n      pop\n        /* \"#utility.yul\":9781:10200   */\n      swap2\n      swap1\n      pop\n      jump\t// out\n        /* \"#utility.yul\":10206:10386   */\n    tag_243:\n        /* \"#utility.yul\":10254:10331   */\n      0x4e487b7100000000000000000000000000000000000000000000000000000000\n        /* \"#utility.yul\":10251:10252   */\n      0x00\n        /* \"#utility.yul\":10244:10332   */\n      mstore\n        /* \"#utility.yul\":10351:10355   */\n      0x11\n        /* \"#utility.yul\":10348:10349   */\n      0x04\n        /* \"#utility.yul\":10341:10356   */\n      mstore\n        /* \"#utility.yul\":10375:10379   */\n      0x24\n        /* \"#utility.yul\":10372:10373   */\n      0x00\n        /* \"#utility.yul\":10365:10380   */\n      revert\n        /* \"#utility.yul\":10392:10583   */\n    tag_177:\n        /* \"#utility.yul\":10432:10435   */\n      0x00\n        /* \"#utility.yul\":10451:10471   */\n      tag_348\n        /* \"#utility.yul\":10469:10470   */\n      dup3\n        /* \"#utility.yul\":10451:10471   */\n      tag_212\n      jump\t// in\n    tag_348:\n        /* \"#utility.yul\":10446:10471   */\n      swap2\n      pop\n        /* \"#utility.yul\":10485:10505   */\n      tag_349\n        /* \"#utility.yul\":10503:10504   */\n      dup4\n        /* \"#utility.yul\":10485:10505   */\n      tag_212\n      jump\t// in\n    tag_349:\n        /* \"#utility.yul\":10480:10505   */\n      swap3\n      pop\n        /* \"#utility.yul\":10528:10529   */\n      dup3\n        /* \"#utility.yul\":10525:10526   */\n      dup3\n        /* \"#utility.yul\":10521:10530   */\n      add\n        /* \"#utility.yul\":10514:10530   */\n      swap1\n      pop\n        /* \"#utility.yul\":10549:10552   */\n      dup1\n        /* \"#utility.yul\":10546:10547   */\n      dup3\n        /* \"#utility.yul\":10543:10553   */\n      gt\n        /* \"#utility.yul\":10540:10576   */\n      iszero\n      tag_350\n      jumpi\n        /* \"#utility.yul\":10556:10574   */\n      tag_351\n      tag_243\n      jump\t// in\n    tag_351:\n        /* \"#utility.yul\":10540:10576   */\n    tag_350:\n        /* \"#utility.yul\":10392:10583   */\n      swap3\n      swap2\n      pop\n      pop\n      jump\t// out\n        /* \"#utility.yul\":10589:10822   */\n    tag_179:\n        /* \"#utility.yul\":10628:10631   */\n      0x00\n        /* \"#utility.yul\":10651:10675   */\n      tag_353\n        /* \"#utility.yul\":10669:10674   */\n      dup3\n        /* \"#utility.yul\":10651:10675   */\n      tag_212\n      jump\t// in\n    tag_353:\n        /* \"#utility.yul\":10642:10675   */\n      swap2\n      pop\n        /* \"#utility.yul\":10697:10763   */\n      0xffffffffffffffffffffffffffffffffffffffffffffffffffffffffffffffff\n        /* \"#utility.yul\":10690:10695   */\n      dup3\n        /* \"#utility.yul\":10687:10764   */\n      sub\n        /* \"#utility.yul\":10684:10787   */\n      tag_354\n      jumpi\n        /* \"#utility.yul\":10767:10785   */\n      tag_355\n      tag_243\n      jump\t// in\n    tag_355:\n        /* \"#utility.yul\":10684:10787   */\n    tag_354:\n        /* \"#utility.yul\":10814:10815   */\n      0x01\n        /* \"#utility.yul\":10807:10812   */\n      dup3\n        /* \"#utility.yul\":10803:10816   */\n      add\n        /* \"#utility.yul\":10796:10816   */\n      swap1\n      pop\n        /* \"#utility.yul\":10589:10822   */\n      swap2\n      swap1\n      pop\n      jump\t// out\n        /* \"#utility.yul\":10828:11008   */\n    tag_244:\n        /* \"#utility.yul\":10876:10953   */\n      0x4e487b7100000000000000000000000000000000000000000000000000000000\n        /* \"#utility.yul\":10873:10874   */\n      0x00\n        /* \"#utility.yul\":10866:10954   */\n      mstore\n        /* \"#utility.yul\":10973:10977   */\n      0x22\n        /* \"#utility.yul\":10970:10971   */\n      0x04\n        /* \"#utility.yul\":10963:10978   */\n      mstore\n        /* \"#utility.yul\":10997:11001   */\n      0x24\n        /* \"#utility.yul\":10994:10995   */\n      0x00\n        /* \"#utility.yul\":10987:11002   */\n      revert\n        /* \"#utility.yul\":11014:11334   */\n    tag_190:\n        /* \"#utility.yul\":11058:11064   */\n      0x00\n        /* \"#utility.yul\":11095:11096   */\n      0x02\n        /* \"#utility.yul\":11089:11093   */\n      dup3\n        /* \"#utility.yul\":11085:11097   */\n      div\n        /* \"#utility.yul\":11075:11097   */\n      swap1\n      pop\n        /* \"#utility.yul\":11142:11143   */\n      0x01\n        /* \"#utility.yul\":11136:11140   */\n      dup3\n        /* \"#utility.yul\":11132:11144   */\n      and\n        /* \"#utility.yul\":11163:11181   */\n      dup1\n        /* \"#utility.yul\":11153:11234   */\n      tag_358\n      jumpi\n        /* \"#utility.yul\":11219:11223   */\n      0x7f\n        /* \"#utility.yul\":11211:11217   */\n      dup3\n        /* \"#utility.yul\":11207:11224   */\n      and\n        /* \"#utility.yul\":11197:11224   */\n      swap2\n      pop\n        /* \"#utility.yul\":11153:11234   */\n    tag_358:\n        /* \"#utility.yul\":11281:11283   */\n      0x20\n        /* \"#utility.yul\":11273:11279   */\n      dup3\n        /* \"#utility.yul\":11270:11284   */\n      lt\n        /* \"#utility.yul\":11250:11268   */\n      dup2\n        /* \"#utility.yul\":11247:11285   */\n      sub\n        /* \"#utility.yul\":11244:11328   */\n      tag_359\n      jumpi\n        /* \"#utility.yul\":11300:11318   */\n      tag_360\n      tag_244\n      jump\t// in\n    tag_360:\n        /* \"#utility.yul\":11244:11328   */\n    tag_359:\n        /* \"#utility.yul\":11065:11334   */\n      pop\n        /* \"#utility.yul\":11014:11334   */\n      swap2\n      swap1\n      pop\n      jump\t// out\n        /* \"#utility.yul\":11340:11501   */\n    tag_245:\n        /* \"#utility.yul\":11480:11493   */\n      0x4552524f52205448524f57000000000000000000000000000000000000000000\n        /* \"#utility.yul\":11476:11477   */\n      0x00\n        /* \"#utility.yul\":11468:11474   */\n      dup3\n        /* \"#utility.yul\":11464:11478   */\n      add\n        /* \"#utility.yul\":11457:11494   */\n      mstore\n        /* \"#utility.yul\":11340:11501   */\n      pop\n      jump\t// out\n        /* \"#utility.yul\":11507:11873   */\n    tag_246:\n        /* \"#utility.yul\":11649:11652   */\n      0x00\n        /* \"#utility.yul\":11670:11737   */\n      tag_363\n        /* \"#utility.yul\":11734:11736   */\n      0x0b\n        /* \"#utility.yul\":11729:11732   */\n      dup4\n        /* \"#utility.yul\":11670:11737   */\n      tag_234\n      jump\t// in\n    tag_363:\n        /* \"#utility.yul\":11663:11737   */\n      swap2\n      pop\n        /* \"#utility.yul\":11746:11839   */\n      tag_364\n        /* \"#utility.yul\":11835:11838   */\n      dup3\n        /* \"#utility.yul\":11746:11839   */\n      tag_245\n      jump\t// in\n    tag_364:\n        /* \"#utility.yul\":11864:11866   */\n      0x20\n        /* \"#utility.yul\":11859:11862   */\n      dup3\n        /* \"#utility.yul\":11855:11867   */\n      add\n        /* \"#utility.yul\":11848:11867   */\n      swap1\n      pop\n        /* \"#utility.yul\":11507:11873   */\n      swap2\n      swap1\n      pop\n      jump\t// out\n        /* \"#utility.yul\":11879:12298   */\n    tag_201:\n        /* \"#utility.yul\":12045:12049   */\n      0x00\n        /* \"#utility.yul\":12083:12085   */\n      0x20\n        /* \"#utility.yul\":12072:12081   */\n      dup3\n        /* \"#utility.yul\":12068:12086   */\n      add\n        /* \"#utility.yul\":12060:12086   */\n      swap1\n      pop\n        /* \"#utility.yul\":12132:12141   */\n      dup2\n        /* \"#utility.yul\":12126:12130   */\n      dup2\n        /* \"#utility.yul\":12122:12142   */\n      sub\n        /* \"#utility.yul\":12118:12119   */\n      0x00\n        /* \"#utility.yul\":12107:12116   */\n      dup4\n        /* \"#utility.yul\":12103:12120   */\n      add\n        /* \"#utility.yul\":12096:12143   */\n      mstore\n        /* \"#utility.yul\":12160:12291   */\n      tag_366\n        /* \"#utility.yul\":12286:12290   */\n      dup2\n        /* \"#utility.yul\":12160:12291   */\n      tag_246\n      jump\t// in\n    tag_366:\n        /* \"#utility.yul\":12152:12291   */\n      swap1\n      pop\n        /* \"#utility.yul\":11879:12298   */\n      swap2\n      swap1\n      pop\n      jump\t// out\n        /* \"#utility.yul\":12304:12484   */\n    tag_206:\n        /* \"#utility.yul\":12352:12429   */\n      0x4e487b7100000000000000000000000000000000000000000000000000000000\n        /* \"#utility.yul\":12349:12350   */\n      0x00\n        /* \"#utility.yul\":12342:12430   */\n      mstore\n        /* \"#utility.yul\":12449:12453   */\n      0x31\n        /* \"#utility.yul\":12446:12447   */\n      0x04\n        /* \"#utility.yul\":12439:12454   */\n      mstore\n        /* \"#utility.yul\":12473:12477   */\n      0x24\n        /* \"#utility.yul\":12470:12471   */\n      0x00\n        /* \"#utility.yul\":12463:12478   */\n      revert\n\n    auxdata: 0xa2646970667358221220ea08ff96fbc03ced4b059da0a49ddb65bc1c24310d13ef15c81d34f8a49661d064736f6c634300081a0033\n}\n",
				"bytecode": {
					"linkReferences": {},
					"object": "60806040526040518060400160405280600b81526020017f48454c4c4f20574f524c440000000000000000000000000000000000000000008152505f90816100479190610385565b50600760015573ab8483f64d9c6d1ecf9b849ae677dd3315835cb2600260016101000a81548173ffffffffffffffffffffffffffffffffffffffff021916908373ffffffffffffffffffffffffffffffffffffffff1602179055506040518060600160405280600160ff168152602001600260ff168152602001600360ff1681525060099060036100d99291906100eb565b503480156100e5575f80fd5b50610454565b826003810192821561011f579160200282015b8281111561011e578251829060ff169055916020019190600101906100fe565b5b50905061012c9190610130565b5090565b5b80821115610147575f815f905550600101610131565b5090565b5f81519050919050565b7f4e487b71000000000000000000000000000000000000000000000000000000005f52604160045260245ffd5b7f4e487b71000000000000000000000000000000000000000000000000000000005f52602260045260245ffd5b5f60028204905060018216806101c657607f821691505b6020821081036101d9576101d8610182565b5b50919050565b5f819050815f5260205f209050919050565b5f6020601f8301049050919050565b5f82821b905092915050565b5f6008830261023b7fffffffffffffffffffffffffffffffffffffffffffffffffffffffffffffffff82610200565b6102458683610200565b95508019841693508086168417925050509392505050565b5f819050919050565b5f819050919050565b5f61028961028461027f8461025d565b610266565b61025d565b9050919050565b5f819050919050565b6102a28361026f565b6102b66102ae82610290565b84845461020c565b825550505050565b5f90565b6102ca6102be565b6102d5818484610299565b505050565b5b818110156102f8576102ed5f826102c2565b6001810190506102db565b5050565b601f82111561033d5761030e816101df565b610317846101f1565b81016020851015610326578190505b61033a610332856101f1565b8301826102da565b50505b505050565b5f82821c905092915050565b5f61035d5f1984600802610342565b1980831691505092915050565b5f610375838361034e565b9150826002028217905092915050565b61038e8261014b565b67ffffffffffffffff8111156103a7576103a6610155565b5b6103b182546101af565b6103bc8282856102fc565b5f60209050601f8311600181146103ed575f84156103db578287015190505b6103e5858261036a565b86555061044c565b601f1984166103fb866101df565b5f5b82811015610422578489015182556001820191506020850194506020810190506103fd565b8683101561043f578489015161043b601f89168261034e565b8355505b6001600288020188555050505b505050505050565b61109f806104615f395ff3fe608060405234801561000f575f80fd5b5060043610610171575f3560e01c8063767800de116100dc5780639f87bd8611610095578063c24cb0a81161006f578063c24cb0a81461043d578063c27fc3051461046d578063d092e1861461048b578063d423740b1461049557610171565b80639f87bd86146103f7578063a92100cb14610401578063c15bae841461041f57610171565b8063767800de1461033357806376c390fe146103515780637a38f9eb1461036f578063890eba681461039f57806390b5561d146103bd578063993a04b7146103d957610171565b80634e70b1dc1161012e5780634e70b1dc1461025d5780635606de361461027b57806356d88e27146102ab5780635e3be076146102c95780635ee7bbc5146102d357806371e5ee5f1461030357610171565b80630c1b7c1e1461017557806310bbd0b5146101935780631b08d96f146101c357806331017fcc146101e157806338d94193146101fd5780634050fb9f1461022d575b5f80fd5b61017d6104b1565b60405161018a9190610aac565b60405180910390f35b6101ad60048036038101906101a89190610af3565b6104fc565b6040516101ba9190610b38565b60405180910390f35b6101cb610556565b6040516101d89190610b38565b60405180910390f35b6101fb60048036038101906101f69190610b51565b61056b565b005b61021760048036038101906102129190610af3565b610589565b6040516102249190610b9e565b60405180910390f35b61024760048036038101906102429190610af3565b6105a9565b6040516102549190610b9e565b60405180910390f35b6102656105d0565b6040516102729190610b9e565b60405180910390f35b61029560048036038101906102909190610af3565b6105d6565b6040516102a29190610b9e565b60405180910390f35b6102b36105ef565b6040516102c09190610b9e565b60405180910390f35b6102d16105fb565b005b6102ed60048036038101906102e89190610af3565b61065e565b6040516102fa9190610b9e565b60405180910390f35b61031d60048036038101906103189190610af3565b61067c565b60405161032a9190610b9e565b60405180910390f35b61033b610695565b6040516103489190610bf6565b60405180910390f35b6103596106bb565b6040516103669190610ca0565b60405180910390f35b61038960048036038101906103849190610af3565b610711565b6040516103969190610b38565b60405180910390f35b6103a761075d565b6040516103b49190610b38565b60405180910390f35b6103d760048036038101906103d29190610af3565b61076f565b005b6103e1610798565b6040516103ee9190610b9e565b60405180910390f35b6103ff6107a1565b005b610409610804565b6040516104169190610b9e565b60405180910390f35b61042761087f565b6040516104349190610d30565b60405180910390f35b61045760048036038101906104529190610af3565b61090a565b6040516104649190610b38565b60405180910390f35b61047561095b565b6040516104829190610b9e565b60405180910390f35b6104936109ab565b005b6104af60048036038101906104aa9190610af3565b6109d2565b005b6104b96109dc565b60036005806020026040519081016040528092919082600580156104f2576020028201915b8154815260200190600101908083116104de575b5050505050905090565b5f815f60028261050c9190610d7d565b1461054c576040517f08c379a000000000000000000000000000000000000000000000000000000000815260040161054390610df7565b60405180910390fd5b6001915050919050565b5f60025f9054906101000a900460ff16905090565b80600383600581106105805761057f610e15565b5b01819055505050565b60088181548110610598575f80fd5b905f5260205f20015f915090505481565b5f600a8210156105bb578190506105cb565b600a826105c89190610d7d565b90505b919050565b60015481565b600981600381106105e5575f80fd5b015f915090505481565b5f600880549050905090565b5f6009600380602002604051908101604052809291908260038015610635576020028201915b815481526020019060010190808311610621575b5050505050905060098160026003811061065257610651610e15565b5b60200201818152505050565b5f6003826005811061067357610672610e15565b5b01549050919050565b6003816005811061068b575f80fd5b015f915090505481565b600260019054906101000a900473ffffffffffffffffffffffffffffffffffffffff1681565b6060600880548060200260200160405190810160405280929190818152602001828054801561070757602002820191905f5260205f20905b8154815260200190600101908083116106f3575b5050505050905090565b5f808214610754576040517f08c379a000000000000000000000000000000000000000000000000000000000815260040161074b90610eb2565b60405180910390fd5b60019050919050565b60025f9054906101000a900460ff1681565b600881908060018154018082558091505060019003905f5260205f20015f909190919091505550565b5f600154905090565b5f60096003806020026040519081016040528092919082600380156107db576020028201915b8154815260200190600101908083116107c7575b505050505090506009816002600381106107f8576107f7610e15565b5b60200201818152505050565b5f805f90505f5b6005821161083457818161081f9190610efd565b9050818061082c90610f30565b92505061080b565b5f5b6005811161085f57808261084a9190610efd565b9150808061085790610f30565b915050610836565b505b818161086d9190610efd565b90506005821061086157809250505090565b5f805461088b90610fa4565b80601f01602080910402602001604051908101604052809291908181526020018280546108b790610fa4565b80156109025780601f106108d957610100808354040283529160200191610902565b820191905f5260205f20905b8154815290600101906020018083116108e557829003601f168201915b505050505081565b5f80820361091b5760019050610956565b6040517f08c379a000000000000000000000000000000000000000000000000000000000815260040161094d90610eb2565b60405180910390fd5b919050565b5f6001151560011515146109a4576040517f08c379a000000000000000000000000000000000000000000000000000000000815260040161099b9061101e565b60405180910390fd5b6001905090565b60088054806109bd576109bc61103c565b5b600190038181905f5260205f20015f90559055565b8060018190555050565b6040518060a00160405280600590602082028036833780820191505090505090565b5f60059050919050565b5f81905092915050565b5f819050919050565b5f819050919050565b610a2d81610a1b565b82525050565b5f610a3e8383610a24565b60208301905092915050565b5f602082019050919050565b610a5f816109fe565b610a698184610a08565b9250610a7482610a12565b805f5b83811015610aa4578151610a8b8782610a33565b9650610a9683610a4a565b925050600181019050610a77565b505050505050565b5f60a082019050610abf5f830184610a56565b92915050565b5f80fd5b610ad281610a1b565b8114610adc575f80fd5b50565b5f81359050610aed81610ac9565b92915050565b5f60208284031215610b0857610b07610ac5565b5b5f610b1584828501610adf565b91505092915050565b5f8115159050919050565b610b3281610b1e565b82525050565b5f602082019050610b4b5f830184610b29565b92915050565b5f8060408385031215610b6757610b66610ac5565b5b5f610b7485828601610adf565b9250506020610b8585828601610adf565b9150509250929050565b610b9881610a1b565b82525050565b5f602082019050610bb15f830184610b8f565b92915050565b5f73ffffffffffffffffffffffffffffffffffffffff82169050919050565b5f610be082610bb7565b9050919050565b610bf081610bd6565b82525050565b5f602082019050610c095f830184610be7565b92915050565b5f81519050919050565b5f82825260208201905092915050565b5f819050602082019050919050565b5f602082019050919050565b5f610c4e82610c0f565b610c588185610c19565b9350610c6383610c29565b805f5b83811015610c93578151610c7a8882610a33565b9750610c8583610c38565b925050600181019050610c66565b5085935050505092915050565b5f6020820190508181035f830152610cb88184610c44565b905092915050565b5f81519050919050565b5f82825260208201905092915050565b8281835e5f83830152505050565b5f601f19601f8301169050919050565b5f610d0282610cc0565b610d0c8185610cca565b9350610d1c818560208601610cda565b610d2581610ce8565b840191505092915050565b5f6020820190508181035f830152610d488184610cf8565b905092915050565b7f4e487b71000000000000000000000000000000000000000000000000000000005f52601260045260245ffd5b5f610d8782610a1b565b9150610d9283610a1b565b925082610da257610da1610d50565b5b828206905092915050565b7f5468726f77206572726f72206e6f74206576656e0000000000000000000000005f82015250565b5f610de1601483610cca565b9150610dec82610dad565b602082019050919050565b5f6020820190508181035f830152610e0e81610dd5565b9050919050565b7f4e487b71000000000000000000000000000000000000000000000000000000005f52603260045260245ffd5b7f61206973206e6f74207a65726f2068657265202c206974207468726f777320615f8201527f206572726f720000000000000000000000000000000000000000000000000000602082015250565b5f610e9c602683610cca565b9150610ea782610e42565b604082019050919050565b5f6020820190508181035f830152610ec981610e90565b9050919050565b7f4e487b71000000000000000000000000000000000000000000000000000000005f52601160045260245ffd5b5f610f0782610a1b565b9150610f1283610a1b565b9250828201905080821115610f2a57610f29610ed0565b5b92915050565b5f610f3a82610a1b565b91507fffffffffffffffffffffffffffffffffffffffffffffffffffffffffffffffff8203610f6c57610f6b610ed0565b5b600182019050919050565b7f4e487b71000000000000000000000000000000000000000000000000000000005f52602260045260245ffd5b5f6002820490506001821680610fbb57607f821691505b602082108103610fce57610fcd610f77565b5b50919050565b7f4552524f52205448524f570000000000000000000000000000000000000000005f82015250565b5f611008600b83610cca565b915061101382610fd4565b602082019050919050565b5f6020820190508181035f83015261103581610ffc565b9050919050565b7f4e487b71000000000000000000000000000000000000000000000000000000005f52603160045260245ffdfea2646970667358221220ea08ff96fbc03ced4b059da0a49ddb65bc1c24310d13ef15c81d34f8a49661d064736f6c634300081a0033",
					"opcodes": "PUSH1 0x80 PUSH1 0x40 MSTORE PUSH1 0x40 MLOAD DUP1 PUSH1 0x40 ADD PUSH1 0x40 MSTORE DUP1 PUSH1 0xB DUP2 MSTORE PUSH1 0x20 ADD PUSH32 0x48454C4C4F20574F524C44000000000000000000000000000000000000000000 DUP2 MSTORE POP PUSH0 SWAP1 DUP2 PUSH2 0x47 SWAP2 SWAP1 PUSH2 0x385 JUMP JUMPDEST POP PUSH1 0x7 PUSH1 0x1 SSTORE PUSH20 0xAB8483F64D9C6D1ECF9B849AE677DD3315835CB2 PUSH1 0x2 PUSH1 0x1 PUSH2 0x100 EXP DUP2 SLOAD DUP2 PUSH20 0xFFFFFFFFFFFFFFFFFFFFFFFFFFFFFFFFFFFFFFFF MUL NOT AND SWAP1 DUP4 PUSH20 0xFFFFFFFFFFFFFFFFFFFFFFFFFFFFFFFFFFFFFFFF AND MUL OR SWAP1 SSTORE POP PUSH1 0x40 MLOAD DUP1 PUSH1 0x60 ADD PUSH1 0x40 MSTORE DUP1 PUSH1 0x1 PUSH1 0xFF AND DUP2 MSTORE PUSH1 0x20 ADD PUSH1 0x2 PUSH1 0xFF AND DUP2 MSTORE PUSH1 0x20 ADD PUSH1 0x3 PUSH1 0xFF AND DUP2 MSTORE POP PUSH1 0x9 SWAP1 PUSH1 0x3 PUSH2 0xD9 SWAP3 SWAP2 SWAP1 PUSH2 0xEB JUMP JUMPDEST POP CALLVALUE DUP1 ISZERO PUSH2 0xE5 JUMPI PUSH0 DUP1 REVERT JUMPDEST POP PUSH2 0x454 JUMP JUMPDEST DUP3 PUSH1 0x3 DUP2 ADD SWAP3 DUP3 ISZERO PUSH2 0x11F JUMPI SWAP2 PUSH1 0x20 MUL DUP3 ADD JUMPDEST DUP3 DUP2 GT ISZERO PUSH2 0x11E JUMPI DUP3 MLOAD DUP3 SWAP1 PUSH1 0xFF AND SWAP1 SSTORE SWAP2 PUSH1 0x20 ADD SWAP2 SWAP1 PUSH1 0x1 ADD SWAP1 PUSH2 0xFE JUMP JUMPDEST JUMPDEST POP SWAP1 POP PUSH2 0x12C SWAP2 SWAP1 PUSH2 0x130 JUMP JUMPDEST POP SWAP1 JUMP JUMPDEST JUMPDEST DUP1 DUP3 GT ISZERO PUSH2 0x147 JUMPI PUSH0 DUP2 PUSH0 SWAP1 SSTORE POP PUSH1 0x1 ADD PUSH2 0x131 JUMP JUMPDEST POP SWAP1 JUMP JUMPDEST PUSH0 DUP2 MLOAD SWAP1 POP SWAP2 SWAP1 POP JUMP JUMPDEST PUSH32 0x4E487B7100000000000000000000000000000000000000000000000000000000 PUSH0 MSTORE PUSH1 0x41 PUSH1 0x4 MSTORE PUSH1 0x24 PUSH0 REVERT JUMPDEST PUSH32 0x4E487B7100000000000000000000000000000000000000000000000000000000 PUSH0 MSTORE PUSH1 0x22 PUSH1 0x4 MSTORE PUSH1 0x24 PUSH0 REVERT JUMPDEST PUSH0 PUSH1 0x2 DUP3 DIV SWAP1 POP PUSH1 0x1 DUP3 AND DUP1 PUSH2 0x1C6 JUMPI PUSH1 0x7F DUP3 AND SWAP2 POP JUMPDEST PUSH1 0x20 DUP3 LT DUP2 SUB PUSH2 0x1D9 JUMPI PUSH2 0x1D8 PUSH2 0x182 JUMP JUMPDEST JUMPDEST POP SWAP2 SWAP1 POP JUMP JUMPDEST PUSH0 DUP2 SWAP1 POP DUP2 PUSH0 MSTORE PUSH1 0x20 PUSH0 KECCAK256 SWAP1 POP SWAP2 SWAP1 POP JUMP JUMPDEST PUSH0 PUSH1 0x20 PUSH1 0x1F DUP4 ADD DIV SWAP1 POP SWAP2 SWAP1 POP JUMP JUMPDEST PUSH0 DUP3 DUP3 SHL SWAP1 POP SWAP3 SWAP2 POP POP JUMP JUMPDEST PUSH0 PUSH1 0x8 DUP4 MUL PUSH2 0x23B PUSH32 0xFFFFFFFFFFFFFFFFFFFFFFFFFFFFFFFFFFFFFFFFFFFFFFFFFFFFFFFFFFFFFFFF DUP3 PUSH2 0x200 JUMP JUMPDEST PUSH2 0x245 DUP7 DUP4 PUSH2 0x200 JUMP JUMPDEST SWAP6 POP DUP1 NOT DUP5 AND SWAP4 POP DUP1 DUP7 AND DUP5 OR SWAP3 POP POP POP SWAP4 SWAP3 POP POP POP JUMP JUMPDEST PUSH0 DUP2 SWAP1 POP SWAP2 SWAP1 POP JUMP JUMPDEST PUSH0 DUP2 SWAP1 POP SWAP2 SWAP1 POP JUMP JUMPDEST PUSH0 PUSH2 0x289 PUSH2 0x284 PUSH2 0x27F DUP5 PUSH2 0x25D JUMP JUMPDEST PUSH2 0x266 JUMP JUMPDEST PUSH2 0x25D JUMP JUMPDEST SWAP1 POP SWAP2 SWAP1 POP JUMP JUMPDEST PUSH0 DUP2 SWAP1 POP SWAP2 SWAP1 POP JUMP JUMPDEST PUSH2 0x2A2 DUP4 PUSH2 0x26F JUMP JUMPDEST PUSH2 0x2B6 PUSH2 0x2AE DUP3 PUSH2 0x290 JUMP JUMPDEST DUP5 DUP5 SLOAD PUSH2 0x20C JUMP JUMPDEST DUP3 SSTORE POP POP POP POP JUMP JUMPDEST PUSH0 SWAP1 JUMP JUMPDEST PUSH2 0x2CA PUSH2 0x2BE JUMP JUMPDEST PUSH2 0x2D5 DUP2 DUP5 DUP5 PUSH2 0x299 JUMP JUMPDEST POP POP POP JUMP JUMPDEST JUMPDEST DUP2 DUP2 LT ISZERO PUSH2 0x2F8 JUMPI PUSH2 0x2ED PUSH0 DUP3 PUSH2 0x2C2 JUMP JUMPDEST PUSH1 0x1 DUP2 ADD SWAP1 POP PUSH2 0x2DB JUMP JUMPDEST POP POP JUMP JUMPDEST PUSH1 0x1F DUP3 GT ISZERO PUSH2 0x33D JUMPI PUSH2 0x30E DUP2 PUSH2 0x1DF JUMP JUMPDEST PUSH2 0x317 DUP5 PUSH2 0x1F1 JUMP JUMPDEST DUP2 ADD PUSH1 0x20 DUP6 LT ISZERO PUSH2 0x326 JUMPI DUP2 SWAP1 POP JUMPDEST PUSH2 0x33A PUSH2 0x332 DUP6 PUSH2 0x1F1 JUMP JUMPDEST DUP4 ADD DUP3 PUSH2 0x2DA JUMP JUMPDEST POP POP JUMPDEST POP POP POP JUMP JUMPDEST PUSH0 DUP3 DUP3 SHR SWAP1 POP SWAP3 SWAP2 POP POP JUMP JUMPDEST PUSH0 PUSH2 0x35D PUSH0 NOT DUP5 PUSH1 0x8 MUL PUSH2 0x342 JUMP JUMPDEST NOT DUP1 DUP4 AND SWAP2 POP POP SWAP3 SWAP2 POP POP JUMP JUMPDEST PUSH0 PUSH2 0x375 DUP4 DUP4 PUSH2 0x34E JUMP JUMPDEST SWAP2 POP DUP3 PUSH1 0x2 MUL DUP3 OR SWAP1 POP SWAP3 SWAP2 POP POP JUMP JUMPDEST PUSH2 0x38E DUP3 PUSH2 0x14B JUMP JUMPDEST PUSH8 0xFFFFFFFFFFFFFFFF DUP2 GT ISZERO PUSH2 0x3A7 JUMPI PUSH2 0x3A6 PUSH2 0x155 JUMP JUMPDEST JUMPDEST PUSH2 0x3B1 DUP3 SLOAD PUSH2 0x1AF JUMP JUMPDEST PUSH2 0x3BC DUP3 DUP3 DUP6 PUSH2 0x2FC JUMP JUMPDEST PUSH0 PUSH1 0x20 SWAP1 POP PUSH1 0x1F DUP4 GT PUSH1 0x1 DUP2 EQ PUSH2 0x3ED JUMPI PUSH0 DUP5 ISZERO PUSH2 0x3DB JUMPI DUP3 DUP8 ADD MLOAD SWAP1 POP JUMPDEST PUSH2 0x3E5 DUP6 DUP3 PUSH2 0x36A JUMP JUMPDEST DUP7 SSTORE POP PUSH2 0x44C JUMP JUMPDEST PUSH1 0x1F NOT DUP5 AND PUSH2 0x3FB DUP7 PUSH2 0x1DF JUMP JUMPDEST PUSH0 JUMPDEST DUP3 DUP2 LT ISZERO PUSH2 0x422 JUMPI DUP5 DUP10 ADD MLOAD DUP3 SSTORE PUSH1 0x1 DUP3 ADD SWAP2 POP PUSH1 0x20 DUP6 ADD SWAP5 POP PUSH1 0x20 DUP2 ADD SWAP1 POP PUSH2 0x3FD JUMP JUMPDEST DUP7 DUP4 LT ISZERO PUSH2 0x43F JUMPI DUP5 DUP10 ADD MLOAD PUSH2 0x43B PUSH1 0x1F DUP10 AND DUP3 PUSH2 0x34E JUMP JUMPDEST DUP4 SSTORE POP JUMPDEST PUSH1 0x1 PUSH1 0x2 DUP9 MUL ADD DUP9 SSTORE POP POP POP JUMPDEST POP POP POP POP POP POP JUMP JUMPDEST PUSH2 0x109F DUP1 PUSH2 0x461 PUSH0 CODECOPY PUSH0 RETURN INVALID PUSH1 0x80 PUSH1 0x40 MSTORE CALLVALUE DUP1 ISZERO PUSH2 0xF JUMPI PUSH0 DUP1 REVERT JUMPDEST POP PUSH1 0x4 CALLDATASIZE LT PUSH2 0x171 JUMPI PUSH0 CALLDATALOAD PUSH1 0xE0 SHR DUP1 PUSH4 0x767800DE GT PUSH2 0xDC JUMPI DUP1 PUSH4 0x9F87BD86 GT PUSH2 0x95 JUMPI DUP1 PUSH4 0xC24CB0A8 GT PUSH2 0x6F JUMPI DUP1 PUSH4 0xC24CB0A8 EQ PUSH2 0x43D JUMPI DUP1 PUSH4 0xC27FC305 EQ PUSH2 0x46D JUMPI DUP1 PUSH4 0xD092E186 EQ PUSH2 0x48B JUMPI DUP1 PUSH4 0xD423740B EQ PUSH2 0x495 JUMPI PUSH2 0x171 JUMP JUMPDEST DUP1 PUSH4 0x9F87BD86 EQ PUSH2 0x3F7 JUMPI DUP1 PUSH4 0xA92100CB EQ PUSH2 0x401 JUMPI DUP1 PUSH4 0xC15BAE84 EQ PUSH2 0x41F JUMPI PUSH2 0x171 JUMP JUMPDEST DUP1 PUSH4 0x767800DE EQ PUSH2 0x333 JUMPI DUP1 PUSH4 0x76C390FE EQ PUSH2 0x351 JUMPI DUP1 PUSH4 0x7A38F9EB EQ PUSH2 0x36F JUMPI DUP1 PUSH4 0x890EBA68 EQ PUSH2 0x39F JUMPI DUP1 PUSH4 0x90B5561D EQ PUSH2 0x3BD JUMPI DUP1 PUSH4 0x993A04B7 EQ PUSH2 0x3D9 JUMPI PUSH2 0x171 JUMP JUMPDEST DUP1 PUSH4 0x4E70B1DC GT PUSH2 0x12E JUMPI DUP1 PUSH4 0x4E70B1DC EQ PUSH2 0x25D JUMPI DUP1 PUSH4 0x5606DE36 EQ PUSH2 0x27B JUMPI DUP1 PUSH4 0x56D88E27 EQ PUSH2 0x2AB JUMPI DUP1 PUSH4 0x5E3BE076 EQ PUSH2 0x2C9 JUMPI DUP1 PUSH4 0x5EE7BBC5 EQ PUSH2 0x2D3 JUMPI DUP1 PUSH4 0x71E5EE5F EQ PUSH2 0x303 JUMPI PUSH2 0x171 JUMP JUMPDEST DUP1 PUSH4 0xC1B7C1E EQ PUSH2 0x175 JUMPI DUP1 PUSH4 0x10BBD0B5 EQ PUSH2 0x193 JUMPI DUP1 PUSH4 0x1B08D96F EQ PUSH2 0x1C3 JUMPI DUP1 PUSH4 0x31017FCC EQ PUSH2 0x1E1 JUMPI DUP1 PUSH4 0x38D94193 EQ PUSH2 0x1FD JUMPI DUP1 PUSH4 0x4050FB9F EQ PUSH2 0x22D JUMPI JUMPDEST PUSH0 DUP1 REVERT JUMPDEST PUSH2 0x17D PUSH2 0x4B1 JUMP JUMPDEST PUSH1 0x40 MLOAD PUSH2 0x18A SWAP2 SWAP1 PUSH2 0xAAC JUMP JUMPDEST PUSH1 0x40 MLOAD DUP1 SWAP2 SUB SWAP1 RETURN JUMPDEST PUSH2 0x1AD PUSH1 0x4 DUP1 CALLDATASIZE SUB DUP2 ADD SWAP1 PUSH2 0x1A8 SWAP2 SWAP1 PUSH2 0xAF3 JUMP JUMPDEST PUSH2 0x4FC JUMP JUMPDEST PUSH1 0x40 MLOAD PUSH2 0x1BA SWAP2 SWAP1 PUSH2 0xB38 JUMP JUMPDEST PUSH1 0x40 MLOAD DUP1 SWAP2 SUB SWAP1 RETURN JUMPDEST PUSH2 0x1CB PUSH2 0x556 JUMP JUMPDEST PUSH1 0x40 MLOAD PUSH2 0x1D8 SWAP2 SWAP1 PUSH2 0xB38 JUMP JUMPDEST PUSH1 0x40 MLOAD DUP1 SWAP2 SUB SWAP1 RETURN JUMPDEST PUSH2 0x1FB PUSH1 0x4 DUP1 CALLDATASIZE SUB DUP2 ADD SWAP1 PUSH2 0x1F6 SWAP2 SWAP1 PUSH2 0xB51 JUMP JUMPDEST PUSH2 0x56B JUMP JUMPDEST STOP JUMPDEST PUSH2 0x217 PUSH1 0x4 DUP1 CALLDATASIZE SUB DUP2 ADD SWAP1 PUSH2 0x212 SWAP2 SWAP1 PUSH2 0xAF3 JUMP JUMPDEST PUSH2 0x589 JUMP JUMPDEST PUSH1 0x40 MLOAD PUSH2 0x224 SWAP2 SWAP1 PUSH2 0xB9E JUMP JUMPDEST PUSH1 0x40 MLOAD DUP1 SWAP2 SUB SWAP1 RETURN JUMPDEST PUSH2 0x247 PUSH1 0x4 DUP1 CALLDATASIZE SUB DUP2 ADD SWAP1 PUSH2 0x242 SWAP2 SWAP1 PUSH2 0xAF3 JUMP JUMPDEST PUSH2 0x5A9 JUMP JUMPDEST PUSH1 0x40 MLOAD PUSH2 0x254 SWAP2 SWAP1 PUSH2 0xB9E JUMP JUMPDEST PUSH1 0x40 MLOAD DUP1 SWAP2 SUB SWAP1 RETURN JUMPDEST PUSH2 0x265 PUSH2 0x5D0 JUMP JUMPDEST PUSH1 0x40 MLOAD PUSH2 0x272 SWAP2 SWAP1 PUSH2 0xB9E JUMP JUMPDEST PUSH1 0x40 MLOAD DUP1 SWAP2 SUB SWAP1 RETURN JUMPDEST PUSH2 0x295 PUSH1 0x4 DUP1 CALLDATASIZE SUB DUP2 ADD SWAP1 PUSH2 0x290 SWAP2 SWAP1 PUSH2 0xAF3 JUMP JUMPDEST PUSH2 0x5D6 JUMP JUMPDEST PUSH1 0x40 MLOAD PUSH2 0x2A2 SWAP2 SWAP1 PUSH2 0xB9E JUMP JUMPDEST PUSH1 0x40 MLOAD DUP1 SWAP2 SUB SWAP1 RETURN JUMPDEST PUSH2 0x2B3 PUSH2 0x5EF JUMP JUMPDEST PUSH1 0x40 MLOAD PUSH2 0x2C0 SWAP2 SWAP1 PUSH2 0xB9E JUMP JUMPDEST PUSH1 0x40 MLOAD DUP1 SWAP2 SUB SWAP1 RETURN JUMPDEST PUSH2 0x2D1 PUSH2 0x5FB JUMP JUMPDEST STOP JUMPDEST PUSH2 0x2ED PUSH1 0x4 DUP1 CALLDATASIZE SUB DUP2 ADD SWAP1 PUSH2 0x2E8 SWAP2 SWAP1 PUSH2 0xAF3 JUMP JUMPDEST PUSH2 0x65E JUMP JUMPDEST PUSH1 0x40 MLOAD PUSH2 0x2FA SWAP2 SWAP1 PUSH2 0xB9E JUMP JUMPDEST PUSH1 0x40 MLOAD DUP1 SWAP2 SUB SWAP1 RETURN JUMPDEST PUSH2 0x31D PUSH1 0x4 DUP1 CALLDATASIZE SUB DUP2 ADD SWAP1 PUSH2 0x318 SWAP2 SWAP1 PUSH2 0xAF3 JUMP JUMPDEST PUSH2 0x67C JUMP JUMPDEST PUSH1 0x40 MLOAD PUSH2 0x32A SWAP2 SWAP1 PUSH2 0xB9E JUMP JUMPDEST PUSH1 0x40 MLOAD DUP1 SWAP2 SUB SWAP1 RETURN JUMPDEST PUSH2 0x33B PUSH2 0x695 JUMP JUMPDEST PUSH1 0x40 MLOAD PUSH2 0x348 SWAP2 SWAP1 PUSH2 0xBF6 JUMP JUMPDEST PUSH1 0x40 MLOAD DUP1 SWAP2 SUB SWAP1 RETURN JUMPDEST PUSH2 0x359 PUSH2 0x6BB JUMP JUMPDEST PUSH1 0x40 MLOAD PUSH2 0x366 SWAP2 SWAP1 PUSH2 0xCA0 JUMP JUMPDEST PUSH1 0x40 MLOAD DUP1 SWAP2 SUB SWAP1 RETURN JUMPDEST PUSH2 0x389 PUSH1 0x4 DUP1 CALLDATASIZE SUB DUP2 ADD SWAP1 PUSH2 0x384 SWAP2 SWAP1 PUSH2 0xAF3 JUMP JUMPDEST PUSH2 0x711 JUMP JUMPDEST PUSH1 0x40 MLOAD PUSH2 0x396 SWAP2 SWAP1 PUSH2 0xB38 JUMP JUMPDEST PUSH1 0x40 MLOAD DUP1 SWAP2 SUB SWAP1 RETURN JUMPDEST PUSH2 0x3A7 PUSH2 0x75D JUMP JUMPDEST PUSH1 0x40 MLOAD PUSH2 0x3B4 SWAP2 SWAP1 PUSH2 0xB38 JUMP JUMPDEST PUSH1 0x40 MLOAD DUP1 SWAP2 SUB SWAP1 RETURN JUMPDEST PUSH2 0x3D7 PUSH1 0x4 DUP1 CALLDATASIZE SUB DUP2 ADD SWAP1 PUSH2 0x3D2 SWAP2 SWAP1 PUSH2 0xAF3 JUMP JUMPDEST PUSH2 0x76F JUMP JUMPDEST STOP JUMPDEST PUSH2 0x3E1 PUSH2 0x798 JUMP JUMPDEST PUSH1 0x40 MLOAD PUSH2 0x3EE SWAP2 SWAP1 PUSH2 0xB9E JUMP JUMPDEST PUSH1 0x40 MLOAD DUP1 SWAP2 SUB SWAP1 RETURN JUMPDEST PUSH2 0x3FF PUSH2 0x7A1 JUMP JUMPDEST STOP JUMPDEST PUSH2 0x409 PUSH2 0x804 JUMP JUMPDEST PUSH1 0x40 MLOAD PUSH2 0x416 SWAP2 SWAP1 PUSH2 0xB9E JUMP JUMPDEST PUSH1 0x40 MLOAD DUP1 SWAP2 SUB SWAP1 RETURN JUMPDEST PUSH2 0x427 PUSH2 0x87F JUMP JUMPDEST PUSH1 0x40 MLOAD PUSH2 0x434 SWAP2 SWAP1 PUSH2 0xD30 JUMP JUMPDEST PUSH1 0x40 MLOAD DUP1 SWAP2 SUB SWAP1 RETURN JUMPDEST PUSH2 0x457 PUSH1 0x4 DUP1 CALLDATASIZE SUB DUP2 ADD SWAP1 PUSH2 0x452 SWAP2 SWAP1 PUSH2 0xAF3 JUMP JUMPDEST PUSH2 0x90A JUMP JUMPDEST PUSH1 0x40 MLOAD PUSH2 0x464 SWAP2 SWAP1 PUSH2 0xB38 JUMP JUMPDEST PUSH1 0x40 MLOAD DUP1 SWAP2 SUB SWAP1 RETURN JUMPDEST PUSH2 0x475 PUSH2 0x95B JUMP JUMPDEST PUSH1 0x40 MLOAD PUSH2 0x482 SWAP2 SWAP1 PUSH2 0xB9E JUMP JUMPDEST PUSH1 0x40 MLOAD DUP1 SWAP2 SUB SWAP1 RETURN JUMPDEST PUSH2 0x493 PUSH2 0x9AB JUMP JUMPDEST STOP JUMPDEST PUSH2 0x4AF PUSH1 0x4 DUP1 CALLDATASIZE SUB DUP2 ADD SWAP1 PUSH2 0x4AA SWAP2 SWAP1 PUSH2 0xAF3 JUMP JUMPDEST PUSH2 0x9D2 JUMP JUMPDEST STOP JUMPDEST PUSH2 0x4B9 PUSH2 0x9DC JUMP JUMPDEST PUSH1 0x3 PUSH1 0x5 DUP1 PUSH1 0x20 MUL PUSH1 0x40 MLOAD SWAP1 DUP2 ADD PUSH1 0x40 MSTORE DUP1 SWAP3 SWAP2 SWAP1 DUP3 PUSH1 0x5 DUP1 ISZERO PUSH2 0x4F2 JUMPI PUSH1 0x20 MUL DUP3 ADD SWAP2 JUMPDEST DUP2 SLOAD DUP2 MSTORE PUSH1 0x20 ADD SWAP1 PUSH1 0x1 ADD SWAP1 DUP1 DUP4 GT PUSH2 0x4DE JUMPI JUMPDEST POP POP POP POP POP SWAP1 POP SWAP1 JUMP JUMPDEST PUSH0 DUP2 PUSH0 PUSH1 0x2 DUP3 PUSH2 0x50C SWAP2 SWAP1 PUSH2 0xD7D JUMP JUMPDEST EQ PUSH2 0x54C JUMPI PUSH1 0x40 MLOAD PUSH32 0x8C379A000000000000000000000000000000000000000000000000000000000 DUP2 MSTORE PUSH1 0x4 ADD PUSH2 0x543 SWAP1 PUSH2 0xDF7 JUMP JUMPDEST PUSH1 0x40 MLOAD DUP1 SWAP2 SUB SWAP1 REVERT JUMPDEST PUSH1 0x1 SWAP2 POP POP SWAP2 SWAP1 POP JUMP JUMPDEST PUSH0 PUSH1 0x2 PUSH0 SWAP1 SLOAD SWAP1 PUSH2 0x100 EXP SWAP1 DIV PUSH1 0xFF AND SWAP1 POP SWAP1 JUMP JUMPDEST DUP1 PUSH1 0x3 DUP4 PUSH1 0x5 DUP2 LT PUSH2 0x580 JUMPI PUSH2 0x57F PUSH2 0xE15 JUMP JUMPDEST JUMPDEST ADD DUP2 SWAP1 SSTORE POP POP POP JUMP JUMPDEST PUSH1 0x8 DUP2 DUP2 SLOAD DUP2 LT PUSH2 0x598 JUMPI PUSH0 DUP1 REVERT JUMPDEST SWAP1 PUSH0 MSTORE PUSH1 0x20 PUSH0 KECCAK256 ADD PUSH0 SWAP2 POP SWAP1 POP SLOAD DUP2 JUMP JUMPDEST PUSH0 PUSH1 0xA DUP3 LT ISZERO PUSH2 0x5BB JUMPI DUP2 SWAP1 POP PUSH2 0x5CB JUMP JUMPDEST PUSH1 0xA DUP3 PUSH2 0x5C8 SWAP2 SWAP1 PUSH2 0xD7D JUMP JUMPDEST SWAP1 POP JUMPDEST SWAP2 SWAP1 POP JUMP JUMPDEST PUSH1 0x1 SLOAD DUP2 JUMP JUMPDEST PUSH1 0x9 DUP2 PUSH1 0x3 DUP2 LT PUSH2 0x5E5 JUMPI PUSH0 DUP1 REVERT JUMPDEST ADD PUSH0 SWAP2 POP SWAP1 POP SLOAD DUP2 JUMP JUMPDEST PUSH0 PUSH1 0x8 DUP1 SLOAD SWAP1 POP SWAP1 POP SWAP1 JUMP JUMPDEST PUSH0 PUSH1 0x9 PUSH1 0x3 DUP1 PUSH1 0x20 MUL PUSH1 0x40 MLOAD SWAP1 DUP2 ADD PUSH1 0x40 MSTORE DUP1 SWAP3 SWAP2 SWAP1 DUP3 PUSH1 0x3 DUP1 ISZERO PUSH2 0x635 JUMPI PUSH1 0x20 MUL DUP3 ADD SWAP2 JUMPDEST DUP2 SLOAD DUP2 MSTORE PUSH1 0x20 ADD SWAP1 PUSH1 0x1 ADD SWAP1 DUP1 DUP4 GT PUSH2 0x621 JUMPI JUMPDEST POP POP POP POP POP SWAP1 POP PUSH1 0x9 DUP2 PUSH1 0x2 PUSH1 0x3 DUP2 LT PUSH2 0x652 JUMPI PUSH2 0x651 PUSH2 0xE15 JUMP JUMPDEST JUMPDEST PUSH1 0x20 MUL ADD DUP2 DUP2 MSTORE POP POP POP JUMP JUMPDEST PUSH0 PUSH1 0x3 DUP3 PUSH1 0x5 DUP2 LT PUSH2 0x673 JUMPI PUSH2 0x672 PUSH2 0xE15 JUMP JUMPDEST JUMPDEST ADD SLOAD SWAP1 POP SWAP2 SWAP1 POP JUMP JUMPDEST PUSH1 0x3 DUP2 PUSH1 0x5 DUP2 LT PUSH2 0x68B JUMPI PUSH0 DUP1 REVERT JUMPDEST ADD PUSH0 SWAP2 POP SWAP1 POP SLOAD DUP2 JUMP JUMPDEST PUSH1 0x2 PUSH1 0x1 SWAP1 SLOAD SWAP1 PUSH2 0x100 EXP SWAP1 DIV PUSH20 0xFFFFFFFFFFFFFFFFFFFFFFFFFFFFFFFFFFFFFFFF AND DUP2 JUMP JUMPDEST PUSH1 0x60 PUSH1 0x8 DUP1 SLOAD DUP1 PUSH1 0x20 MUL PUSH1 0x20 ADD PUSH1 0x40 MLOAD SWAP1 DUP2 ADD PUSH1 0x40 MSTORE DUP1 SWAP3 SWAP2 SWAP1 DUP2 DUP2 MSTORE PUSH1 0x20 ADD DUP3 DUP1 SLOAD DUP1 ISZERO PUSH2 0x707 JUMPI PUSH1 0x20 MUL DUP3 ADD SWAP2 SWAP1 PUSH0 MSTORE PUSH1 0x20 PUSH0 KECCAK256 SWAP1 JUMPDEST DUP2 SLOAD DUP2 MSTORE PUSH1 0x20 ADD SWAP1 PUSH1 0x1 ADD SWAP1 DUP1 DUP4 GT PUSH2 0x6F3 JUMPI JUMPDEST POP POP POP POP POP SWAP1 POP SWAP1 JUMP JUMPDEST PUSH0 DUP1 DUP3 EQ PUSH2 0x754 JUMPI PUSH1 0x40 MLOAD PUSH32 0x8C379A000000000000000000000000000000000000000000000000000000000 DUP2 MSTORE PUSH1 0x4 ADD PUSH2 0x74B SWAP1 PUSH2 0xEB2 JUMP JUMPDEST PUSH1 0x40 MLOAD DUP1 SWAP2 SUB SWAP1 REVERT JUMPDEST PUSH1 0x1 SWAP1 POP SWAP2 SWAP1 POP JUMP JUMPDEST PUSH1 0x2 PUSH0 SWAP1 SLOAD SWAP1 PUSH2 0x100 EXP SWAP1 DIV PUSH1 0xFF AND DUP2 JUMP JUMPDEST PUSH1 0x8 DUP2 SWAP1 DUP1 PUSH1 0x1 DUP2 SLOAD ADD DUP1 DUP3 SSTORE DUP1 SWAP2 POP POP PUSH1 0x1 SWAP1 SUB SWAP1 PUSH0 MSTORE PUSH1 0x20 PUSH0 KECCAK256 ADD PUSH0 SWAP1 SWAP2 SWAP1 SWAP2 SWAP1 SWAP2 POP SSTORE POP JUMP JUMPDEST PUSH0 PUSH1 0x1 SLOAD SWAP1 POP SWAP1 JUMP JUMPDEST PUSH0 PUSH1 0x9 PUSH1 0x3 DUP1 PUSH1 0x20 MUL PUSH1 0x40 MLOAD SWAP1 DUP2 ADD PUSH1 0x40 MSTORE DUP1 SWAP3 SWAP2 SWAP1 DUP3 PUSH1 0x3 DUP1 ISZERO PUSH2 0x7DB JUMPI PUSH1 0x20 MUL DUP3 ADD SWAP2 JUMPDEST DUP2 SLOAD DUP2 MSTORE PUSH1 0x20 ADD SWAP1 PUSH1 0x1 ADD SWAP1 DUP1 DUP4 GT PUSH2 0x7C7 JUMPI JUMPDEST POP POP POP POP POP SWAP1 POP PUSH1 0x9 DUP2 PUSH1 0x2 PUSH1 0x3 DUP2 LT PUSH2 0x7F8 JUMPI PUSH2 0x7F7 PUSH2 0xE15 JUMP JUMPDEST JUMPDEST PUSH1 0x20 MUL ADD DUP2 DUP2 MSTORE POP POP POP JUMP JUMPDEST PUSH0 DUP1 PUSH0 SWAP1 POP PUSH0 JUMPDEST PUSH1 0x5 DUP3 GT PUSH2 0x834 JUMPI DUP2 DUP2 PUSH2 0x81F SWAP2 SWAP1 PUSH2 0xEFD JUMP JUMPDEST SWAP1 POP DUP2 DUP1 PUSH2 0x82C SWAP1 PUSH2 0xF30 JUMP JUMPDEST SWAP3 POP POP PUSH2 0x80B JUMP JUMPDEST PUSH0 JUMPDEST PUSH1 0x5 DUP2 GT PUSH2 0x85F JUMPI DUP1 DUP3 PUSH2 0x84A SWAP2 SWAP1 PUSH2 0xEFD JUMP JUMPDEST SWAP2 POP DUP1 DUP1 PUSH2 0x857 SWAP1 PUSH2 0xF30 JUMP JUMPDEST SWAP2 POP POP PUSH2 0x836 JUMP JUMPDEST POP JUMPDEST DUP2 DUP2 PUSH2 0x86D SWAP2 SWAP1 PUSH2 0xEFD JUMP JUMPDEST SWAP1 POP PUSH1 0x5 DUP3 LT PUSH2 0x861 JUMPI DUP1 SWAP3 POP POP POP SWAP1 JUMP JUMPDEST PUSH0 DUP1 SLOAD PUSH2 0x88B SWAP1 PUSH2 0xFA4 JUMP JUMPDEST DUP1 PUSH1 0x1F ADD PUSH1 0x20 DUP1 SWAP2 DIV MUL PUSH1 0x20 ADD PUSH1 0x40 MLOAD SWAP1 DUP2 ADD PUSH1 0x40 MSTORE DUP1 SWAP3 SWAP2 SWAP1 DUP2 DUP2 MSTORE PUSH1 0x20 ADD DUP3 DUP1 SLOAD PUSH2 0x8B7 SWAP1 PUSH2 0xFA4 JUMP JUMPDEST DUP1 ISZERO PUSH2 0x902 JUMPI DUP1 PUSH1 0x1F LT PUSH2 0x8D9 JUMPI PUSH2 0x100 DUP1 DUP4 SLOAD DIV MUL DUP4 MSTORE SWAP2 PUSH1 0x20 ADD SWAP2 PUSH2 0x902 JUMP JUMPDEST DUP3 ADD SWAP2 SWAP1 PUSH0 MSTORE PUSH1 0x20 PUSH0 KECCAK256 SWAP1 JUMPDEST DUP2 SLOAD DUP2 MSTORE SWAP1 PUSH1 0x1 ADD SWAP1 PUSH1 0x20 ADD DUP1 DUP4 GT PUSH2 0x8E5 JUMPI DUP3 SWAP1 SUB PUSH1 0x1F AND DUP3 ADD SWAP2 JUMPDEST POP POP POP POP POP DUP2 JUMP JUMPDEST PUSH0 DUP1 DUP3 SUB PUSH2 0x91B JUMPI PUSH1 0x1 SWAP1 POP PUSH2 0x956 JUMP JUMPDEST PUSH1 0x40 MLOAD PUSH32 0x8C379A000000000000000000000000000000000000000000000000000000000 DUP2 MSTORE PUSH1 0x4 ADD PUSH2 0x94D SWAP1 PUSH2 0xEB2 JUMP JUMPDEST PUSH1 0x40 MLOAD DUP1 SWAP2 SUB SWAP1 REVERT JUMPDEST SWAP2 SWAP1 POP JUMP JUMPDEST PUSH0 PUSH1 0x1 ISZERO ISZERO PUSH1 0x1 ISZERO ISZERO EQ PUSH2 0x9A4 JUMPI PUSH1 0x40 MLOAD PUSH32 0x8C379A000000000000000000000000000000000000000000000000000000000 DUP2 MSTORE PUSH1 0x4 ADD PUSH2 0x99B SWAP1 PUSH2 0x101E JUMP JUMPDEST PUSH1 0x40 MLOAD DUP1 SWAP2 SUB SWAP1 REVERT JUMPDEST PUSH1 0x1 SWAP1 POP SWAP1 JUMP JUMPDEST PUSH1 0x8 DUP1 SLOAD DUP1 PUSH2 0x9BD JUMPI PUSH2 0x9BC PUSH2 0x103C JUMP JUMPDEST JUMPDEST PUSH1 0x1 SWAP1 SUB DUP2 DUP2 SWAP1 PUSH0 MSTORE PUSH1 0x20 PUSH0 KECCAK256 ADD PUSH0 SWAP1 SSTORE SWAP1 SSTORE JUMP JUMPDEST DUP1 PUSH1 0x1 DUP2 SWAP1 SSTORE POP POP JUMP JUMPDEST PUSH1 0x40 MLOAD DUP1 PUSH1 0xA0 ADD PUSH1 0x40 MSTORE DUP1 PUSH1 0x5 SWAP1 PUSH1 0x20 DUP3 MUL DUP1 CALLDATASIZE DUP4 CALLDATACOPY DUP1 DUP3 ADD SWAP2 POP POP SWAP1 POP POP SWAP1 JUMP JUMPDEST PUSH0 PUSH1 0x5 SWAP1 POP SWAP2 SWAP1 POP JUMP JUMPDEST PUSH0 DUP2 SWAP1 POP SWAP3 SWAP2 POP POP JUMP JUMPDEST PUSH0 DUP2 SWAP1 POP SWAP2 SWAP1 POP JUMP JUMPDEST PUSH0 DUP2 SWAP1 POP SWAP2 SWAP1 POP JUMP JUMPDEST PUSH2 0xA2D DUP2 PUSH2 0xA1B JUMP JUMPDEST DUP3 MSTORE POP POP JUMP JUMPDEST PUSH0 PUSH2 0xA3E DUP4 DUP4 PUSH2 0xA24 JUMP JUMPDEST PUSH1 0x20 DUP4 ADD SWAP1 POP SWAP3 SWAP2 POP POP JUMP JUMPDEST PUSH0 PUSH1 0x20 DUP3 ADD SWAP1 POP SWAP2 SWAP1 POP JUMP JUMPDEST PUSH2 0xA5F DUP2 PUSH2 0x9FE JUMP JUMPDEST PUSH2 0xA69 DUP2 DUP5 PUSH2 0xA08 JUMP JUMPDEST SWAP3 POP PUSH2 0xA74 DUP3 PUSH2 0xA12 JUMP JUMPDEST DUP1 PUSH0 JUMPDEST DUP4 DUP2 LT ISZERO PUSH2 0xAA4 JUMPI DUP2 MLOAD PUSH2 0xA8B DUP8 DUP3 PUSH2 0xA33 JUMP JUMPDEST SWAP7 POP PUSH2 0xA96 DUP4 PUSH2 0xA4A JUMP JUMPDEST SWAP3 POP POP PUSH1 0x1 DUP2 ADD SWAP1 POP PUSH2 0xA77 JUMP JUMPDEST POP POP POP POP POP POP JUMP JUMPDEST PUSH0 PUSH1 0xA0 DUP3 ADD SWAP1 POP PUSH2 0xABF PUSH0 DUP4 ADD DUP5 PUSH2 0xA56 JUMP JUMPDEST SWAP3 SWAP2 POP POP JUMP JUMPDEST PUSH0 DUP1 REVERT JUMPDEST PUSH2 0xAD2 DUP2 PUSH2 0xA1B JUMP JUMPDEST DUP2 EQ PUSH2 0xADC JUMPI PUSH0 DUP1 REVERT JUMPDEST POP JUMP JUMPDEST PUSH0 DUP2 CALLDATALOAD SWAP1 POP PUSH2 0xAED DUP2 PUSH2 0xAC9 JUMP JUMPDEST SWAP3 SWAP2 POP POP JUMP JUMPDEST PUSH0 PUSH1 0x20 DUP3 DUP5 SUB SLT ISZERO PUSH2 0xB08 JUMPI PUSH2 0xB07 PUSH2 0xAC5 JUMP JUMPDEST JUMPDEST PUSH0 PUSH2 0xB15 DUP5 DUP3 DUP6 ADD PUSH2 0xADF JUMP JUMPDEST SWAP2 POP POP SWAP3 SWAP2 POP POP JUMP JUMPDEST PUSH0 DUP2 ISZERO ISZERO SWAP1 POP SWAP2 SWAP1 POP JUMP JUMPDEST PUSH2 0xB32 DUP2 PUSH2 0xB1E JUMP JUMPDEST DUP3 MSTORE POP POP JUMP JUMPDEST PUSH0 PUSH1 0x20 DUP3 ADD SWAP1 POP PUSH2 0xB4B PUSH0 DUP4 ADD DUP5 PUSH2 0xB29 JUMP JUMPDEST SWAP3 SWAP2 POP POP JUMP JUMPDEST PUSH0 DUP1 PUSH1 0x40 DUP4 DUP6 SUB SLT ISZERO PUSH2 0xB67 JUMPI PUSH2 0xB66 PUSH2 0xAC5 JUMP JUMPDEST JUMPDEST PUSH0 PUSH2 0xB74 DUP6 DUP3 DUP7 ADD PUSH2 0xADF JUMP JUMPDEST SWAP3 POP POP PUSH1 0x20 PUSH2 0xB85 DUP6 DUP3 DUP7 ADD PUSH2 0xADF JUMP JUMPDEST SWAP2 POP POP SWAP3 POP SWAP3 SWAP1 POP JUMP JUMPDEST PUSH2 0xB98 DUP2 PUSH2 0xA1B JUMP JUMPDEST DUP3 MSTORE POP POP JUMP JUMPDEST PUSH0 PUSH1 0x20 DUP3 ADD SWAP1 POP PUSH2 0xBB1 PUSH0 DUP4 ADD DUP5 PUSH2 0xB8F JUMP JUMPDEST SWAP3 SWAP2 POP POP JUMP JUMPDEST PUSH0 PUSH20 0xFFFFFFFFFFFFFFFFFFFFFFFFFFFFFFFFFFFFFFFF DUP3 AND SWAP1 POP SWAP2 SWAP1 POP JUMP JUMPDEST PUSH0 PUSH2 0xBE0 DUP3 PUSH2 0xBB7 JUMP JUMPDEST SWAP1 POP SWAP2 SWAP1 POP JUMP JUMPDEST PUSH2 0xBF0 DUP2 PUSH2 0xBD6 JUMP JUMPDEST DUP3 MSTORE POP POP JUMP JUMPDEST PUSH0 PUSH1 0x20 DUP3 ADD SWAP1 POP PUSH2 0xC09 PUSH0 DUP4 ADD DUP5 PUSH2 0xBE7 JUMP JUMPDEST SWAP3 SWAP2 POP POP JUMP JUMPDEST PUSH0 DUP2 MLOAD SWAP1 POP SWAP2 SWAP1 POP JUMP JUMPDEST PUSH0 DUP3 DUP3 MSTORE PUSH1 0x20 DUP3 ADD SWAP1 POP SWAP3 SWAP2 POP POP JUMP JUMPDEST PUSH0 DUP2 SWAP1 POP PUSH1 0x20 DUP3 ADD SWAP1 POP SWAP2 SWAP1 POP JUMP JUMPDEST PUSH0 PUSH1 0x20 DUP3 ADD SWAP1 POP SWAP2 SWAP1 POP JUMP JUMPDEST PUSH0 PUSH2 0xC4E DUP3 PUSH2 0xC0F JUMP JUMPDEST PUSH2 0xC58 DUP2 DUP6 PUSH2 0xC19 JUMP JUMPDEST SWAP4 POP PUSH2 0xC63 DUP4 PUSH2 0xC29 JUMP JUMPDEST DUP1 PUSH0 JUMPDEST DUP4 DUP2 LT ISZERO PUSH2 0xC93 JUMPI DUP2 MLOAD PUSH2 0xC7A DUP9 DUP3 PUSH2 0xA33 JUMP JUMPDEST SWAP8 POP PUSH2 0xC85 DUP4 PUSH2 0xC38 JUMP JUMPDEST SWAP3 POP POP PUSH1 0x1 DUP2 ADD SWAP1 POP PUSH2 0xC66 JUMP JUMPDEST POP DUP6 SWAP4 POP POP POP POP SWAP3 SWAP2 POP POP JUMP JUMPDEST PUSH0 PUSH1 0x20 DUP3 ADD SWAP1 POP DUP2 DUP2 SUB PUSH0 DUP4 ADD MSTORE PUSH2 0xCB8 DUP2 DUP5 PUSH2 0xC44 JUMP JUMPDEST SWAP1 POP SWAP3 SWAP2 POP POP JUMP JUMPDEST PUSH0 DUP2 MLOAD SWAP1 POP SWAP2 SWAP1 POP JUMP JUMPDEST PUSH0 DUP3 DUP3 MSTORE PUSH1 0x20 DUP3 ADD SWAP1 POP SWAP3 SWAP2 POP POP JUMP JUMPDEST DUP3 DUP2 DUP4 MCOPY PUSH0 DUP4 DUP4 ADD MSTORE POP POP POP JUMP JUMPDEST PUSH0 PUSH1 0x1F NOT PUSH1 0x1F DUP4 ADD AND SWAP1 POP SWAP2 SWAP1 POP JUMP JUMPDEST PUSH0 PUSH2 0xD02 DUP3 PUSH2 0xCC0 JUMP JUMPDEST PUSH2 0xD0C DUP2 DUP6 PUSH2 0xCCA JUMP JUMPDEST SWAP4 POP PUSH2 0xD1C DUP2 DUP6 PUSH1 0x20 DUP7 ADD PUSH2 0xCDA JUMP JUMPDEST PUSH2 0xD25 DUP2 PUSH2 0xCE8 JUMP JUMPDEST DUP5 ADD SWAP2 POP POP SWAP3 SWAP2 POP POP JUMP JUMPDEST PUSH0 PUSH1 0x20 DUP3 ADD SWAP1 POP DUP2 DUP2 SUB PUSH0 DUP4 ADD MSTORE PUSH2 0xD48 DUP2 DUP5 PUSH2 0xCF8 JUMP JUMPDEST SWAP1 POP SWAP3 SWAP2 POP POP JUMP JUMPDEST PUSH32 0x4E487B7100000000000000000000000000000000000000000000000000000000 PUSH0 MSTORE PUSH1 0x12 PUSH1 0x4 MSTORE PUSH1 0x24 PUSH0 REVERT JUMPDEST PUSH0 PUSH2 0xD87 DUP3 PUSH2 0xA1B JUMP JUMPDEST SWAP2 POP PUSH2 0xD92 DUP4 PUSH2 0xA1B JUMP JUMPDEST SWAP3 POP DUP3 PUSH2 0xDA2 JUMPI PUSH2 0xDA1 PUSH2 0xD50 JUMP JUMPDEST JUMPDEST DUP3 DUP3 MOD SWAP1 POP SWAP3 SWAP2 POP POP JUMP JUMPDEST PUSH32 0x5468726F77206572726F72206E6F74206576656E000000000000000000000000 PUSH0 DUP3 ADD MSTORE POP JUMP JUMPDEST PUSH0 PUSH2 0xDE1 PUSH1 0x14 DUP4 PUSH2 0xCCA JUMP JUMPDEST SWAP2 POP PUSH2 0xDEC DUP3 PUSH2 0xDAD JUMP JUMPDEST PUSH1 0x20 DUP3 ADD SWAP1 POP SWAP2 SWAP1 POP JUMP JUMPDEST PUSH0 PUSH1 0x20 DUP3 ADD SWAP1 POP DUP2 DUP2 SUB PUSH0 DUP4 ADD MSTORE PUSH2 0xE0E DUP2 PUSH2 0xDD5 JUMP JUMPDEST SWAP1 POP SWAP2 SWAP1 POP JUMP JUMPDEST PUSH32 0x4E487B7100000000000000000000000000000000000000000000000000000000 PUSH0 MSTORE PUSH1 0x32 PUSH1 0x4 MSTORE PUSH1 0x24 PUSH0 REVERT JUMPDEST PUSH32 0x61206973206E6F74207A65726F2068657265202C206974207468726F77732061 PUSH0 DUP3 ADD MSTORE PUSH32 0x206572726F720000000000000000000000000000000000000000000000000000 PUSH1 0x20 DUP3 ADD MSTORE POP JUMP JUMPDEST PUSH0 PUSH2 0xE9C PUSH1 0x26 DUP4 PUSH2 0xCCA JUMP JUMPDEST SWAP2 POP PUSH2 0xEA7 DUP3 PUSH2 0xE42 JUMP JUMPDEST PUSH1 0x40 DUP3 ADD SWAP1 POP SWAP2 SWAP1 POP JUMP JUMPDEST PUSH0 PUSH1 0x20 DUP3 ADD SWAP1 POP DUP2 DUP2 SUB PUSH0 DUP4 ADD MSTORE PUSH2 0xEC9 DUP2 PUSH2 0xE90 JUMP JUMPDEST SWAP1 POP SWAP2 SWAP1 POP JUMP JUMPDEST PUSH32 0x4E487B7100000000000000000000000000000000000000000000000000000000 PUSH0 MSTORE PUSH1 0x11 PUSH1 0x4 MSTORE PUSH1 0x24 PUSH0 REVERT JUMPDEST PUSH0 PUSH2 0xF07 DUP3 PUSH2 0xA1B JUMP JUMPDEST SWAP2 POP PUSH2 0xF12 DUP4 PUSH2 0xA1B JUMP JUMPDEST SWAP3 POP DUP3 DUP3 ADD SWAP1 POP DUP1 DUP3 GT ISZERO PUSH2 0xF2A JUMPI PUSH2 0xF29 PUSH2 0xED0 JUMP JUMPDEST JUMPDEST SWAP3 SWAP2 POP POP JUMP JUMPDEST PUSH0 PUSH2 0xF3A DUP3 PUSH2 0xA1B JUMP JUMPDEST SWAP2 POP PUSH32 0xFFFFFFFFFFFFFFFFFFFFFFFFFFFFFFFFFFFFFFFFFFFFFFFFFFFFFFFFFFFFFFFF DUP3 SUB PUSH2 0xF6C JUMPI PUSH2 0xF6B PUSH2 0xED0 JUMP JUMPDEST JUMPDEST PUSH1 0x1 DUP3 ADD SWAP1 POP SWAP2 SWAP1 POP JUMP JUMPDEST PUSH32 0x4E487B7100000000000000000000000000000000000000000000000000000000 PUSH0 MSTORE PUSH1 0x22 PUSH1 0x4 MSTORE PUSH1 0x24 PUSH0 REVERT JUMPDEST PUSH0 PUSH1 0x2 DUP3 DIV SWAP1 POP PUSH1 0x1 DUP3 AND DUP1 PUSH2 0xFBB JUMPI PUSH1 0x7F DUP3 AND SWAP2 POP JUMPDEST PUSH1 0x20 DUP3 LT DUP2 SUB PUSH2 0xFCE JUMPI PUSH2 0xFCD PUSH2 0xF77 JUMP JUMPDEST JUMPDEST POP SWAP2 SWAP1 POP JUMP JUMPDEST PUSH32 0x4552524F52205448524F57000000000000000000000000000000000000000000 PUSH0 DUP3 ADD MSTORE POP JUMP JUMPDEST PUSH0 PUSH2 0x1008 PUSH1 0xB DUP4 PUSH2 0xCCA JUMP JUMPDEST SWAP2 POP PUSH2 0x1013 DUP3 PUSH2 0xFD4 JUMP JUMPDEST PUSH1 0x20 DUP3 ADD SWAP1 POP SWAP2 SWAP1 POP JUMP JUMPDEST PUSH0 PUSH1 0x20 DUP3 ADD SWAP1 POP DUP2 DUP2 SUB PUSH0 DUP4 ADD MSTORE PUSH2 0x1035 DUP2 PUSH2 0xFFC JUMP JUMPDEST SWAP1 POP SWAP2 SWAP1 POP JUMP JUMPDEST PUSH32 0x4E487B7100000000000000000000000000000000000000000000000000000000 PUSH0 MSTORE PUSH1 0x31 PUSH1 0x4 MSTORE PUSH1 0x24 PUSH0 REVERT INVALID LOG2 PUSH5 0x6970667358 0x22 SLT KECCAK256 0xEA ADDMOD SELFDESTRUCT SWAP7 0xFB 0xC0 EXTCODECOPY 0xED 0x4B SDIV SWAP14 LOG0 LOG4 SWAP14 0xDB PUSH6 0xBC1C24310D13 0xEF ISZERO 0xC8 SAR CALLVALUE 0xF8 LOG4 SWAP7 PUSH2 0xD064 PUSH20 0x6F6C634300081A00330000000000000000000000 "
				},
				"gasEstimates": {
					"creation": {
						"codeDepositCost": "851000",
						"executionCost": "infinite",
						"totalCost": "infinite"
					},
					"external": {
						"Display()": "infinite",
						"Even(uint256)": "infinite",
						"addr()": "2582",
						"arr(uint256)": "infinite",
						"array(uint256)": "infinite",
						"brr(uint256)": "infinite",
						"conditionals(uint256)": "infinite",
						"display()": "infinite",
						"f1()": "433",
						"flag()": "2555",
						"fmemory()": "infinite",
						"fstorage()": "infinite",
						"getter()": "2565",
						"insert(uint256)": "46932",
						"isZero(uint256)": "793",
						"isZeroIF(uint256)": "771",
						"len()": "2507",
						"loop()": "infinite",
						"num()": "2448",
						"removeLast()": "29529",
						"ret()": "2541",
						"setter(uint256)": "22625",
						"singledisplay(uint256)": "infinite",
						"str()": "infinite",
						"updater(uint256,uint256)": "infinite"
					}
				},
				"methodIdentifiers": {
					"Display()": "76c390fe",
					"Even(uint256)": "10bbd0b5",
					"addr()": "767800de",
					"arr(uint256)": "71e5ee5f",
					"array(uint256)": "38d94193",
					"brr(uint256)": "5606de36",
					"conditionals(uint256)": "4050fb9f",
					"display()": "0c1b7c1e",
					"f1()": "c27fc305",
					"flag()": "890eba68",
					"fmemory()": "9f87bd86",
					"fstorage()": "5e3be076",
					"getter()": "993a04b7",
					"insert(uint256)": "90b5561d",
					"isZero(uint256)": "7a38f9eb",
					"isZeroIF(uint256)": "c24cb0a8",
					"len()": "56d88e27",
					"loop()": "a92100cb",
					"num()": "4e70b1dc",
					"removeLast()": "d092e186",
					"ret()": "1b08d96f",
					"setter(uint256)": "d423740b",
					"singledisplay(uint256)": "5ee7bbc5",
					"str()": "c15bae84",
					"updater(uint256,uint256)": "31017fcc"
				}
			},
			"storageLayout": {
				"storage": [
					{
						"astId": 4,
						"contract": "contracts/demo.sol:demo",
						"label": "str",
						"offset": 0,
						"slot": "0",
						"type": "t_string_storage"
					},
					{
						"astId": 7,
						"contract": "contracts/demo.sol:demo",
						"label": "num",
						"offset": 0,
						"slot": "1",
						"type": "t_uint256"
					},
					{
						"astId": 99,
						"contract": "contracts/demo.sol:demo",
						"label": "flag",
						"offset": 0,
						"slot": "2",
						"type": "t_bool"
					},
					{
						"astId": 194,
						"contract": "contracts/demo.sol:demo",
						"label": "addr",
						"offset": 1,
						"slot": "2",
						"type": "t_address"
					},
					{
						"astId": 198,
						"contract": "contracts/demo.sol:demo",
						"label": "arr",
						"offset": 0,
						"slot": "3",
						"type": "t_array(t_uint256)5_storage"
					},
					{
						"astId": 237,
						"contract": "contracts/demo.sol:demo",
						"label": "array",
						"offset": 0,
						"slot": "8",
						"type": "t_array(t_uint256)dyn_storage"
					},
					{
						"astId": 284,
						"contract": "contracts/demo.sol:demo",
						"label": "brr",
						"offset": 0,
						"slot": "9",
						"type": "t_array(t_uint256)3_storage"
					}
				],
				"types": {
					"t_address": {
						"encoding": "inplace",
						"label": "address",
						"numberOfBytes": "20"
					},
					"t_array(t_uint256)3_storage": {
						"base": "t_uint256",
						"encoding": "inplace",
						"label": "uint256[3]",
						"numberOfBytes": "96"
					},
					"t_array(t_uint256)5_storage": {
						"base": "t_uint256",
						"encoding": "inplace",
						"label": "uint256[5]",
						"numberOfBytes": "160"
					},
					"t_array(t_uint256)dyn_storage": {
						"base": "t_uint256",
						"encoding": "dynamic_array",
						"label": "uint256[]",
						"numberOfBytes": "32"
					},
					"t_bool": {
						"encoding": "inplace",
						"label": "bool",
						"numberOfBytes": "1"
					},
					"t_string_storage": {
						"encoding": "bytes",
						"label": "string",
						"numberOfBytes": "32"
					},
					"t_uint256": {
						"encoding": "inplace",
						"label": "uint256",
						"numberOfBytes": "32"
					}
				}
			},
			"userdoc": {
				"kind": "user",
				"methods": {},
				"version": 1
			}
		}
	}
}